:020000040000FA
:1000000010090020D5000000F1000000211C0000B4
:1000100000000000000000000000000000000000E0
:10002000000000000000000000000000F5000000DB
:100030000000000000000000F7000000393200005E
:10004000591E0000611E0000691E0000751E0000A0
:1000500071090000C13A0000E13A00004F3B000086
:10006000751C00007D1C0000893000001531000067
:10007000371C00003F1C0000A93A0000B13A000004
:10008000B93A0000691C0000C93A0000D13A0000EA
:10009000D93A0000491E0000213D0000E71F000082
:1000A00007070000511E00000D3D0000153D000037
:1000B000851C0000611C00006D0D00006909000036
:1000C0000348854600F0F0FA00480047353F00003D
:1000D0001009002009480A4A002100A1814200D9E4
:1000E00002440848064A026007488047074800471C
:1000F000FEE7FEE7FEE7FEE7FEE7FEE70000002082
:100100000000000008ED00E0193A0000C100000006
:1001100030B50B46014600202022012409E00D469F
:10012000D5409D4205D31D469540491B2546954027
:1001300040191546521E002DF1DC30BD03460B431D
:100140009B0703D009E008C9121F08C0042AFAD28D
:1001500003E00B780370401C491C521EF9D2704713
:10016000D2B201E00270401C491EFBD2704700224F
:10017000F6E710B513460A4604461946FFF7F0FFA6
:10018000204610BD421C0178401C0029FBD1801A7A
:1001900070470000F0B507460846584087B0C00FCA
:1001A000049048000E46590040084908BC1A88418E
:1001B00005D2384631461E4617460B4602465800C1
:1001C000400810434CD0300D039040055900400DBD
:1001D000490D0590401A0290402872DA1803012157
:1001E000000B09050843019004980092002805D0EF
:1001F00001995242002088410092019002984021CA
:100200000A1A0199009800F087F905460C466B46DA
:1002100007CB00F0A2F9C0197141039A0E0D00231B
:10022000D71756401A467A40164344D0049A002AFB
:100230002DD0029A012A039A15DC1205C01A9141A9
:1002400001263605001C7141D20F059ED20700938E
:10025000019202962A46234600F09FF907B0F0BDAE
:1002600038463146FAE71605224A0F46B218C01A38
:10027000B74101210905001C4F4100187F4111467B
:1002800018187941E20F10436D19644113E0E20739
:100290006D0815436408C2071443039A012612052A
:1002A000C01A91413605001C7141CE074008304309
:1002B0004908C01851412A46234600F061F9CDE7AC
:1002C000FFE7049801224000C117121A00238B4156
:1002D00004983146C417381AA141EEE730B401241E
:1002E000E407634030BC55E730B40124E4076140C3
:1002F00030BC4FE70000E0FFF0B51FB488B00B99A9
:100300000998002448400999C00F490049080991FB
:10031000C0070B990090490049080B91099908986A
:10032000A64608431CD00B990A98084318D0099890
:1003300001244000420D4800410D099824050003A6
:10034000000B204309900B980003000B20430B90F7
:1003500050181C494018002201901446104605E030
:10036000002001460DB0F0BD032801DA034600E08D
:1003700003239C46C11A0AAE0AE05F0008ADED5B9C
:100380004F00F75B7D430027AA187C41491C5B1E88
:100390006145F2DD410004AB5A522104120C0A43BC
:1003A000240C401C0828DFDB01980290009970465D
:1003B00001910090059B049A0799069800F0EDF8CA
:1003C000D0E700000DFCFFFFF0B50C465C4085B0A7
:1003D000E40FE40703944C00002664085900944697
:1003E000490802460296224321D062460A431ED0A3
:1003F0006200570D4A000E032303550D01240246E7
:100400002C492405781B1B0B360B4018234326432D
:10041000614600901C46501AB44103D30098401C1A
:10042000009002E0921800985B41002803DA002057
:10043000014605B0F0BD00200121090507468646AA
:1004400011E064461D46141BB54106D36546521B98
:10045000B341744607430C43A646CD0740084908FC
:10046000284392185B4105460D43EAD110461843D4
:1004700013D06046194650407140084306D060468C
:10048000101AB34106D20122002306E00022012304
:10049000DB0702E00122D2435310009874460105A5
:1004A000381C6141029C039D0019694100F068F805
:1004B000BFE70000FD030000F0B51FB406460020B2
:1004C00082B005464024019100901BE0019922462C
:1004D0000F46304600F030F8049A059B801A994187
:1004E00010D310461946224600F016F8361A8F41EE
:1004F0000197224601200021009F00F00DF83818D6
:100500004D4100902046641E0028DFDC019B0098CE
:100510002946324607B0F0BD10B5202A04DB01465B
:10052000203A9140002010BD914020239C1A0346A0
:10053000E3401943904010BD10B5202A04DB084663
:10054000203AD040002110BD0B46D340D04020249B
:10055000A21A91400843194610BD10B5202A06DBA7
:10056000CB170846203A1041C1170B4306E00B4653
:100570001341D0402024A21A91400843194610BDCF
:1005800010B5002B08DA0024401C614192185B4131
:100590001A4301D14008400010BDF0B51FB482B02D
:1005A00005460C0003D0084604F002F802E003F010
:1005B000FFFF20300246009021462846FFF7ACFF9F
:1005C000049B059A04460F4618431143084314D070
:1005D000184610431BD0009840210A1A1846059966
:1005E000FFF7AAFF05460E46009A05990498FFF703
:1005F00093FF084305D0012004E02046394607B0A8
:10060000F0BD0020C11705430E432C43374300992A
:100610000E986305401A7905E40A00220C43FD0A8E
:100620000A3002D500200146E9E7010510196941A9
:100630000C9C0D9D00196941FFF7A2FFDFE7000048
:100640004A0009030123090B1B0519430A4B10B586
:10065000520D9A4202DA0020014610BD064B343397
:100660009A4203DC9A1AFFF767FF10BD034BD218BA
:10067000FFF752FF10BD0000FF030000CDFBFFFF9E
:1006800010B5002904DB0124E40740428C412146D7
:10069000002B04DB1C460123DB075242A341994295
:1006A00000D1904210BD0000064C0125064E05E029
:1006B000E36807CC2B430C3C98471034B442F7D383
:1006C000FFF702FD8C500000AC50000030B58C18D4
:1006D0000278401C13071B0F01D10378401C12093C
:1006E00006D10278401C03E005780D70401C491CBF
:1006F0005B1EF9D101E00B70491C521EFBD1A142D7
:10070000E6D3002030BD80B5C046C046C046C046D6
:1007100080BD80B58CB001460BAA107005A81823C7
:1007200004911946039203F0EBFB0020059006901C
:100730000790089009900A9003980178C90700294A
:1007400005D0FFE74020082100F0FCFB04E040203A
:10075000082100F04DFBFFE74020082105AA029088
:10076000019100F087FB0022029900900846019950
:1007700000F0D8FB0CB080BD80B588B0014607AA58
:10078000108006A800220280FFE706A8008807A9BB
:100790000988490088421BDAFFE7402008210590BC
:1007A000049100F0CFFBF02103900846029100F085
:1007B000E7FC0598049900F01BFB0299019008469C
:1007C00000F0DEFCFFE70698401C06A90880DCE785
:1007D00008B080BD70B588B013460C46054607AE1C
:1007E000308006A8018005A80280002003900293B3
:1007F00001940095FFF78DFF04A803990180FFE79E
:1008000004A8008807A9098888420EDAFFE706A82D
:100810000088FFF7B1FF05A8008800F09BFCFFE708
:100820000498401C04A90880EAE708B070BD80B5B0
:1008300084B0FF2000F02BF802A908700878552832
:1008400004D1FFE703A80021017018E0FF20552123
:10085000019000F054F801990090084600F017F854
:1008600002A908700878552804D1FFE703A80021E1
:10087000017004E0FFE703A801210170FFE703A86E
:10088000007804B080BD80B500F0E6FC80BD80B586
:1008900086B0014604AA108003A8002303701088C4
:1008A000FF2804DDFFE705A80121017023E000F027
:1008B000E1FDA02000F08EFD00F034FE04A90978CF
:1008C0000290084600F086FD00F02CFE019000F03A
:1008D000D1FDA12000F07EFD00F024FE002100905B
:1008E000084600F023FD03A9087000F0EDFD039811
:1008F00005A90870FFE705A8007806B080BD10B50F
:1009000086B00A46034604AC208003A80170208804
:10091000FF2804DDFFE705A80121017020E000F0B9
:10092000A9FDA02000F056FD00F0FCFD04A9097807
:100930000290084600F04EFD00F0F4FD03A909788E
:100940000190084600F046FD00F0ECFD009000F03C
:10095000BBFD0A2000F0FEFB05A800210170FFE7A7
:1009600005A8007806B010BD80B5C046C04680BD61
:1009700080B5C046C04680BD80B58CB006A81821A1
:10098000059003F0BDFA00200690079040210C224C
:100990000490084603911146059B02921A4600F006
:1009A00069FA0399019008460299049A00F0BAFA8C
:1009B000039900900846029900F0C4FA0CB080BD7B
:1009C00080B58AB004A81821039003F099FA00209A
:1009D00004900590069007900890099008210290D5
:1009E0000191039A00F046FA029900900846019995
:1009F00000F0A8FA0AB080BD80B58AB004A818211A
:100A0000039003F07DFA0020049005900690079073
:100A10000890099002900299039A00F02BFA02992B
:100A20000190084600F0E4F90AB080BD80B58AB0B4
:100A300004A81821039003F063FA002004900590A5
:100A400006900790089009904020032102900191A0
:100A5000039A00F00FFA029900900846019900F0FD
:100A6000C7F90AB080BD80B58CB006A818210590E2
:100A700003F046FA0020069007900F21049003919E
:100A8000059A00F0F7F90499029008460399049A30
:100A900000F048FA049901900846039900F052FAD0
:100AA0000CB080BD80B58AB004A81821039003F073
:100AB00027FA00200490059006900790089009906E
:100AC0000C2102900191039A00F0D4F90299009050
:100AD0000846019900F036FA0AB080BD80B586B0AC
:100AE00013460590049103A80270059902900846E8
:100AF000019303F057F90598049903F0C5F902989A
:100B00000178012904D1FFE7059803F073F903E0A8
:100B1000059803F059F9FFE706B080BD80B5FFF7EF
:100B2000B2FEFFF784FE002804D0FFE73C48012115
:100B3000016003E03A4800210160FFE780BDC04644
:100B400080B582B0009000F067F8002804D0FFE77D
:100B500001A80021017006E068460088FFF797FEB3
:100B600001A90870FFE701A8007802B080BD80B538
:100B700084B0029001A80021018000F04DF8002807
:100B800004D0FFE703A80021018011E002A800883B
:100B9000FFF77DFE01A908700298401C80B2009109
:100BA000FFF775FE00994870019803AA1080FFE7CF
:100BB00003A8008804B080BD80B584B002900020F6
:100BC000019000F029F8002803D0FFE700200390EF
:100BD0001EE002A80088FFF75AFE01A908700298DB
:100BE000401C80B20091FFF752FE009948700298B5
:100BF000801C80B2FFF74BFE009988700298C01CE1
:100C000080B2FFF744FE0099C87001980390FFE797
:100C1000039804B080BD000001480068C0B270476E
:100C20000000002080B586B00A46049003A8017039
:100C30000192FFF7F1FF002804D0FFE705A801218A
:100C400001701FE000200290FFE70298042815DCE5
:100C5000FFE70498FFF774FF03A90978884207D0DB
:100C6000FFE704A8008803A90978FFF748FE00E021
:100C700004E0FFE70298401C0290E6E705A8002187
:100C80000170FFE705A8007806B080BD80B588B088
:100C90000A46069005A801800392FFF7BDFF0028D1
:100CA00004D0FFE707A8012101802BE00020049079
:100CB000FFE70498042821DCFFE70698FFF757FFB9
:100CC00005A90988884213D0FFE706A8008805A96E
:100CD0000A7802911146FFF712FE0699491C029A02
:100CE000537889B2019008461946FFF708FE00E0E4
:100CF00004E0FFE70498401C0490DAE707A800210D
:100D00000180FFE707A8008808B080BD80B582B0E9
:100D100000F0E0FF01F064F800200190FFE7019887
:100D2000022819DCFFE701F015F8C0B212280AD03A
:100D3000FFE701F00FF8C0B2132804D0FFE70A481C
:100D40000121016003E008480021016004E0FFE7A1
:100D50000198401C0190E2E700F098FF02B080BDCE
:100D6000014800687047C0460400002080B5C046B6
:100D7000C046C046C04680BD82B0019000200090B1
:100D800008480949016009490160019808490A6851
:100D90008007000F0C239A4310180860009802B0D7
:100DA0007047C0462C0002405A5A0000A5A500001A
:100DB0002000024082B001900091019800680099E3
:100DC000C8400121084002B07047000080B584B0DF
:100DD000039002910398054940180299002201925C
:100DE00002F09CF9019804B080BDC046100E02408C
:100DF00080B582B001900091019804494018009993
:100E0000012202F08BF9002002B080BD140D0240D7
:100E100080B584B0039002910192019880000399FB
:100E2000401805494018009000980299012202F0EC
:100E300075F9002004B080BD300D024080B582B04D
:100E4000019000910198034940180099FFF7B2FF03
:100E500002B080BD040D024080B582B001900091C7
:100E60000198034940180099FFF7A4FF02B080BD24
:100E7000000E024080B584B0039002910192039865
:100E80002149401802990022009202F047F9039884
:100E90000299890040182A49009A425003981B4938
:100EA00040180299019B1A7802F038F90398184902
:100EB00040180299019A127902F030F90398154905
:100EC00040180299019A127A02F028F903981249FF
:100ED00040180299019A127B02F020F903980F49F9
:100EE00040180299019A127C02F018F901984069A1
:100EF0000B490A68C007000C0123DB039A43101852
:100F00000860009804B080BD0C0D0240000D024046
:100F10001C0D0240200D0240240D02402C0D024009
:100F2000080F024083B0029001910092009802994C
:100F3000019A92008918024A8850002003B0704735
:100F4000000C024080B582B00190009101980449E4
:100F500040180099012202F0E1F8002002B080BDA3
:100F6000100D0240204800687047C04622480068C3
:100F70007047C04680B5FFF7F9FF19490860086857
:100F800018490968884214D9FFE7154800681549CF
:100F90000968401AC0087D280BD3FFE71248016892
:100FA000491C01600F4801687D22D2008918016048
:100FB00014E00C4800680A490968081AC0087D282E
:100FC0000BD3FFE708480168491C01600548016828
:100FD0007D22D20089180160FFE7FFE7002080BD75
:100FE000300100203401002004050020024801687F
:100FF000491C0160002070470805002080B582B0C0
:1010000001F084FA002806D0FFE701201549642288
:10101000FFF7E0FBFFE7FFF7FFFD00280DD0FFE73C
:101020001148019001F0DEFE019801F0DBFE012085
:101030000C496422FFF7CEFBFFE7FFF791FE002883
:101040000DD0FFE70948009001F0CCFE009801F0B8
:10105000C9FE012003496422FFF7BCFBFFE702B091
:1010600080BDC046B80B0000615000007750000002
:1010700080B584B0FFF780FCFFF7F5FCFFF7A0FC1C
:10108000FFF7D4FCFFF7B8FCFFF70CFD00200821A8
:101090000390FFF757FF40210322029008461146B4
:1010A000FFF7A6FE039901900846FFF7A1FE0C2169
:1010B000039A00901046FFF745FF04B080BD000082
:1010C00086B00590002000904A480068039005987B
:1010D00049490968414364204843049047480068EF
:1010E0000290FFE745480068019001980299884204
:1010F0001ED0FFE701980299884207D2FFE70298C5
:101100000199401A00990818009008E00398019985
:10111000401A02994018009908180090FFE70198BA
:10112000029000980499884201D3FFE701E0FFE7AD
:10113000D8E706B07047C04680B582B001900198EC
:101140000349FEF7E5FF2C49086002B080BDC046A8
:1011500040420F0080B582B0019000200090FFE770
:1011600000980199884208D2FFE70A20FFF7A8FFFC
:10117000FFE70098401C0090F2E702B080BD00003D
:1011800086B00590002000901A48006803900598EA
:101190001949096841430491184800680290FFE723
:1011A0001648006801900198029988421ED0FFE716
:1011B00001980299884207D2FFE702980199401AE4
:1011C00000990818009008E003980199401A0299C4
:1011D0004018009908180090FFE7019802900098C5
:1011E0000499884201D3FFE701E0FFE7D8E706B0A2
:1011F0007047C04614E000E0F804002018E000E06A
:1012000080B588B04020062107900691FFF7F0FDD9
:10121000E2490722002305900846114604921A4627
:1012200001F07CFF07980499FFF7E2FD022103908B
:1012300008460291FFF7A4FF07980699FFF782FE80
:10124000029901900846FFF79BFF07980699FFF760
:10125000CFFD08B080BDC04680B590B00AA8182167
:10126000099002F04DFE00200A900B9001210C9194
:101270000D900E91402106220890084607911146D4
:10128000099B06921A46FFF7F5FD0721079A05907C
:1012900010460491099AFFF7EDFD0799039008465F
:1012A0000699089AFFF73EFE0799029008460499AE
:1012B000089AFFF737FE0799019008460699FFF74D
:1012C00041FE0799009008460499FFF73BFE10B0D5
:1012D00080BD000080B588B04020062107900691AF
:1012E000FFF786FDAD490722002305900846114609
:1012F00004921A4601F012FF07980499FFF722FEA4
:101300000221039008460291FFF73AFF07980699D9
:10131000FFF718FE029901900846FFF731FF079882
:101320000699FFF765FD08B080BDC04610B58AB0CC
:10133000014609AA107008A80022027097480723E6
:101340000124069119460592224601F0E7FE07A8FE
:1013500005990170FFE707A8007807282ADCFFE756
:101360004020062104900391FFF742FD02210290E4
:101370000846FFF705FF04980399FFF7E3FD089976
:10138000490008AA11700721049A01901046FFF73E
:1013900055FD002805D0FFE70898401C08A90870F3
:1013A000FFE70120FFF7ECFEFFE70798401C07A9C5
:1013B0000870D0E709A80078002803D1FFE7FFF7FD
:1013C00089FF02E0FFF71CFFFFE708A800780AB0DA
:1013D00010BDC04680B58AB0014609AA10706F489A
:1013E00007220023079111461A46069301F096FE44
:1013F00040200621FFF7FCFC08A9069A0A70FFE7C7
:1014000008A80078072832DCFFE709A80078C0099F
:10141000002805D0FFE740200721FFF793FD04E0F7
:1014200040200721FFF7E4FCFFE70998400009A9E5
:10143000087002200590FFF7A3FE402006210490CB
:101440000391FFF77FFD059902900846FFF798FE8C
:1014500004980399FFF7CCFC059901900846FFF723
:101460008FFEFFE70898401C08A90870C8E70AB07B
:1014700080BDC04680B588B048480721002207914A
:1014800001F04CFE402006900799FFF75BFD062116
:10149000069A059010460491FFF754FD042103902D
:1014A00008460291FFF76CFE06980799FFF7A0FC2B
:1014B000029901900846FFF763FE06980499FFF72A
:1014C00097FC08B080BDC04680B588B0334807217E
:1014D0000022079101F022FE402006900799FFF7B5
:1014E00087FC0621069A059010460491FFF780FCC0
:1014F0000421039008460291FFF742FE06980499E2
:10150000FFF720FD022101900846FFF739FE0698FB
:101510000799FFF717FD029900900846FFF730FE84
:1015200008B080BD80B586B004A8002101701B48BA
:1015300007210122039101F0F1FD4020029003995F
:10154000FFF700FD00BF0621029A01901046FFF749
:10155000F9FC00BFFFE740200721FFF76FFC0028E0
:101560000FD0FFE70498401C04A908700878FB28F6
:1015700006DBFFE7FFF7A8FF05A80121017008E0DF
:10158000E9E740200621FFF733FC05A900220A7095
:10159000FFE705A8007806B080BDC046400D0240B8
:1015A00080B582B001900199002002F0C5FB009047
:1015B00002F0BAFB02B080BD704780B58EB00F203C
:1015C00001210D9102F03CF918210C9008460D996B
:1015D00002F036F91F210B9008460D9902F030F900
:1015E00014210A9008460D9902F02AF91C2109904D
:1015F00008460D9902F024F90021089008460D9A3A
:101600000791114602F01CF90D990690084602F068
:1016100017F9042105900846079902F011F90521F0
:1016200004900846079902F00BF90621039008463A
:101630000D9902F005F90721029008460D9902F074
:10164000FFF8102101900846079902F0F9F80EB052
:1016500080BD80B596B0112002F042F9022101222E
:101660000E9008460D9111460C9201F043FE0D9923
:101670000B90084602F082F900210A900846099171
:1016800002F004F90999089008460C9901F032FE1D
:10169000032112910422139214910D99159112AB0A
:1016A00007901846069202F01BF80721059008469D
:1016B00002F0B2F80699049008460C9901F01AFE5F
:1016C0000C9903900846FFF757FB06990F91099A6A
:1016D000109211920FAB0290184601F0BBFD0D99CC
:1016E00001900846099901F005FE16B080BD70B55D
:1016F00094B00BA824210A9002F002FC062002F00C
:1017000009F911210990084602F0EAF802210122A4
:101710000890084607911146069201F0EBFD0699E4
:101720000B91079A0F920A9B1A3320249C71032372
:101730000A9DEB77A97712262E773026EE760026C3
:10174000AE76059020460493039600F01DFC0499A4
:101750000290084600F018FC06990190084600F037
:1017600013FC0299009008460199009A00F03FFC92
:1017700000F01DFC0A99487706981090039A0A8396
:10178000084601F095FB069801F058FB14B070BDB7
:1017900010B5B0B02AA81821299002F0B1FBFFF7CC
:1017A0000FF9FFF743F9FFF727F9FFF77BF900205F
:1017B00008212890FFF7C6FB402103222790084606
:1017C00026911146FFF714FB289925900846FFF74C
:1017D0000FFB0C21289A249010462391FFF7B2FBAF
:1017E00028992A912B912C912D912E910622269B9E
:1017F000229018461146299C21922246FFF73AFB77
:101800000721269A209010461F91299AFFF732FB54
:1018100026991E9008462199289AFFF783FB26995E
:101820001D9008461F99289AFFF77CFB28992A915A
:101830002B912C912D912E9105221C90084611463A
:10184000299B1B921A46FFF715FB28991A90084608
:101850001F99299AFFF70EFB28991990084621999C
:10186000299AFFF707FB2899189008461B99289A90
:10187000FFF758FB2899179008461F99289AFFF7F9
:1018800051FB2899169008462199289AFFF74AFBA0
:1018900028992A912B912C912D912E91269A159071
:1018A00010462399299AFFF7E5FA269914900846DD
:1018B0002399289AFFF736FB28992A912B912C918E
:1018C0002D912E910F22139008461146299B1292BA
:1018D0001A46FFF7CFFA2899119008461299289ACC
:1018E000FFF720FB0421269A109010460F91299AA9
:1018F000FFF7C0FA26990E9008460F99289AFFF72D
:1019000011FB0A21269A0D9010460C91299AFFF797
:10191000B1FA26990B9008460C99289AFFF702FB1A
:1019200026990A9008462199FFF762FA26990990AC
:1019300008461F99FFF75CFA2899089008461B99FA
:10194000FFF756FA2899079008461F99FFF750FAB3
:101950002899069008462199FFF74AFA269905909A
:1019600008462399FFF744FA2899049008461299EB
:10197000FFF73EFA2699039008460F99FFF738FAC9
:101980002699029008460C99FFF732FA0349019014
:101990000846FFF7DFFB30B010BDC046B80B0000B3
:1019A00080B586B001F074FB02A81021019000916F
:1019B00002F0A6FA009802900321039100210591FC
:1019C0000491DC48019901F0DAFB06B080BDC04605
:1019D00080B588B0024607AB1870069105A80021B3
:1019E0000170069903A8029200F066F8FFE7FB4831
:1019F000042101F0AFFB002808D1FFE703A800F0A5
:101A00006AF8002801D0FFE700E0F0E707A80178B6
:101A1000F24801F0D2FB142101900846FFF7B0FB19
:101A2000FFE7EE48022101F095FB002808D1FFE70F
:101A300003A800F050F8002801D0FFE700E0F0E72D
:101A4000F94801F0B3FB05A90870087808B080BD1B
:101A500080B588B0024607AB18700691069904A8B5
:101A6000039200F029F8FFE7EF48042101F072FB30
:101A7000002808D1FFE704A800F02DF8002801D0C5
:101A8000FFE700E0F0E707A80178E74A0290104678
:101A900001F093FB02990A780190104608B080BDCE
:101AA00080B5044800687D21C900FEF731FB01F0D4
:101AB00099FB80BD0800002080B582B001900091A4
:101AC000009801990860FFF751FA009940180199B0
:101AD000486002B080BD80B586B00490049841682B
:101AE0000068081A0290FFF741FA039003980299E0
:101AF000884205D9FFE703980299401A019004E053
:101B000002980399081A0190FFE70198049909685F
:101B1000884204D9FFE705A80121017003E005A868
:101B200000210170FFE705A8007806B080BD80B5F0
:101B300090B00F9001F0DAFF09A81821089002F088
:101B4000DFF9C020099000200B900A900F990E91A8
:101B500001214A020C920790069101F089FD0D9037
:101B6000069881070846089A0591114602F082F806
:101B7000059904900846069902F040F805990390EB
:101B80000846079902F03AF8059902900846079925
:101B900002F04FF80621019008460699069AFEF7D2
:101BA0009DFF10B080BD000080B590B00F9001F097
:101BB000D4FF09A81821089002F0A2F9C0200990CA
:101BC00000200B900A900F990E9101214A020C926D
:101BD0000790069101F04CFD0D9010480590089972
:101BE00002F048F8059904900846069902F006F8B4
:101BF000059903900846079902F000F805990290AC
:101C00000846079902F015F8072101900846069941
:101C1000069AFEF763FF10B080BDC0460001004089
:101C200081B000200090FFE70098002801D1FFE775
:101C3000FAE701B0704780B5C046C04680BD80B5A8
:101C4000C046C04680BD80B584B00390039840680C
:101C500002900298019001988047012004B080BD55
:101C600080B5C046C04680BD80B5C046C046C046AF
:101C7000C04680BD80B5C046C04680BD80B5C04668
:101C8000C04680BD80B5C046C04680BD80B586B028
:101C900040200C2105900491FFF7AAF86249002228
:101CA000039008460291114601F092FAB92000F023
:101CB000BDF80121029A0190104601F089FA0598B9
:101CC0000499FFF73FF9052100900846FFF758FAFD
:101CD00006B080BD80B5FFF763FE00F001F880BD5F
:101CE00080B58CB006A81821059002F009F90020F3
:101CF0000690079040210C2204900846039111465B
:101D0000059B02921A46FFF7B5F803990190084621
:101D10000299049AFFF706F9434901220090084608
:101D2000114601F055FA03980299FFF70BF90CB030
:101D300080BDC0460008004080B582B0014601AABF
:101D4000107010787D22920000911146FFF740FE3E
:101D500002B080BD80B58CB000200B9040210C22D9
:101D60000A900846099111460892FFF741F82E495A
:101D7000079008460A9A0691114601F029FA902028
:101D800000F054F80A990590084600F04FF80A99B7
:101D90000490084600F04AF80A990390084600F0BB
:101DA00045F8FF21029008460191FFF7C5FF0002A8
:101DB0000B9901430B910198FFF7BEFF0B9901436B
:101DC0000B910121069801F003FA09980899FFF791
:101DD000B9F80B99009008460CB080BD000800408F
:101DE00080B586B040200C2105900491FFF700F8E3
:101DF000EB490022039008460291114601F0E8F9F0
:101E0000AB2000F013F80121029A0190104601F076
:101E1000DFF905980499FFF795F80A210090084624
:101E2000FFF7AEF906B080BD0008004080B582B073
:101E3000014601AA107010787D229200009111468F
:101E4000FFF706FE02B080BD80B5C046C04680BD2B
:101E500080B5C046C04680BD80B5C046C04680BD86
:101E600080B500F00DF880BD80B5C046C046C046C4
:101E7000C04680BD80B5C046C046C046C04680BD95
:101E800080B582B040200A21FEF7E6FF002808D086
:101E9000FFE740200A21FEF799FF019000F03CFB8C
:101EA000FFE702B080BD80B588B002A8182101907C
:101EB00002F026F801200290002103910491059080
:101EC000069107910B20009008460099019AFEF7B1
:101ED000D1FF08B080BD80B588B0FFF7BDF90A20FA
:101EE0008021079000F027F80B2101220690084678
:101EF0001146059200F01FF8202140220490084668
:101F0000114600F018F8212103900846059900F0C9
:101F100012F80921DC2202900846114600F00BF865
:101F20000021079A0190104600F005F80090FFF795
:101F3000BAFF08B080BD10B58AB00A46034609ACA6
:101F4000207008A801700792069305940490FFF78B
:101F500091FA1A20FFF73EFAFFF7E4FA05990A789A
:101F600003901046FFF736FAFFF7DCFA04990A7877
:101F700002901046FFF72EFAFFF7D4FA0190FFF710
:101F8000A3FA00200AB010BD82B0014601AA107069
:101F900000200090107800090A2343430093009822
:101FA00012780F231A408018C0B202B0704782B076
:101FB000014601AA107000200090FFE701A80078F8
:101FC0000A2808DBFFE70098401C009001980A38B7
:101FD00001A90870F2E700980007000E01A909782E
:101FE000084302B0704780B5C046C04680BD70B59A
:101FF0008EB013460C4605460DAE30700CA801702D
:102000000BA90A7000210A91099131787D221201F1
:1020100089180A91007802282AD8FFE70CA80078CE
:10202000172141430920089008460899FEF770F8E7
:102030000BA9097840180A994018491E8A08801887
:1020400064220790084606911146FEF761F8079949
:10205000081A19210901069A05901046FEF758F84A
:1020600005990818001D0721FEF752F8099128E08C
:102070000CA80078172141430920049008460499D0
:10208000FEF746F80BA9097840180A9940188A0803
:10209000801864220390084602911146FEF738F832
:1020A0000399081A19210901029A01901046FEF7B6
:1020B0002FF801990818801C0721FEF729F80991CB
:1020C000FFE709A800780EB070BD0000E7480121C5
:1020D00001717047E54800210171704780B586B0F5
:1020E000024605AB1870049103A8002101702B482B
:1020F0000290FFE7029800283CD0FFE700F0C1FC07
:102100009748002101F064F8442000F080FCFF2192
:102110000090084600F058FC03A908700878FF28D2
:1021200012D1FFE705A80078002806D0FFE705A830
:102130000078049900F053FCFFE78948012101F081
:1021400047F800F098FC15E08548012101F040F8BF
:1021500000F091FC0298401E029096200190FFE74B
:102160000198012805DBFFE7FFE70198401E019079
:10217000F6E7BFE70298002803D1FFE7FFE7FFE794
:10218000FFE703A80078FF2803D1FFE7FFF79EFFD2
:10219000FFE703A8007806B080BDC046983A00006B
:1021A0000008004080B582B0002001900199FFF73F
:1021B00095FF02B080BD0000F0B587B014460D4613
:1021C000064606AF387005A8017004A90A7003938B
:1021D00002A90A220A700078002814D0FFE7FFE75E
:1021E000CC48007900280DD1FFE7FFF7DBFF02990B
:1021F000491E02AA1170117849B2002901D1FFE7E6
:1022000000E0EDE7FFE700F03CFC554800210190BD
:1022100000F0DEFF06A8007800F0F9FB04A90978B9
:10222000039A00900846114600F0D9FB012101985D
:1022300000F0CEFF00F01FFCFFF74CFF07B0F0BD31
:1022400080B584B0024603AB1870029101A80A2140
:102250000170FFE7AF48007900280DD1FFE7FFF7D5
:10226000A1FF0199491E01AA1170117849B20029F4
:1022700001D1FFE700E0EDE700F003FC3848002162
:10228000009000F0A5FF03A80078029900F0CAFBB7
:102290000121009800F09CFF00F0EDFBFFF71AFF12
:1022A00004B080BD70B588B01446054607AE3070E6
:1022B000069105A8027004933178069A03900846A7
:1022C000114602940195FFF7BBFF0398007804992B
:1022D000FFF704FF08B070BDF0B587B014460D4697
:1022E000064606AF387005A8017004A90A7003936A
:1022F00002A90A220A700078002814D0FFE7FFE73D
:10230000E748007900280DD1FFE7FFF74BFF02995E
:10231000491E02AA1170117849B2002901D1FFE7C4
:1023200000E0EDE7FFE700F0ACFB0D480021019075
:1023300000F04EFF06A8007800F069FB04A90978B8
:10234000039A00900846114600F06CFB01210198A9
:1023500000F03EFF00F08FFBFFF7BCFE07B0F0BDC2
:102360000008004080B582B0002000900099009ADB
:1023700001F0A8FF24488079000700280AD5FFE76C
:10238000012001F011FF022001F082FF082001F07E
:102390000BFFFFE71C4880788006002804D5FFE784
:1023A00001A8202101702BE017488078C006002882
:1023B00004D5FFE701A81021017021E012488078C0
:1023C0000007002804D5FFE7022001F061FFFFE7C6
:1023D0000D4880788007002804D5FFE701A8022176
:1023E00001700DE008488078C007002804D0FFE79E
:1023F00001A80121017003E001A800210170FFE79D
:1024000001A8007802B080BD4C01002080B501F029
:10241000C9FF1420FEF79EFE80BD0000B0B58AB053
:102420000A46034609AC207008A8017000210790F5
:1024300008460691069D05922A460493039401F0EE
:1024400041FF022001F024FF0398007807990A78E1
:1024500008230193032300930699069B01F0ECFFE8
:102460008F480121C1700AB0B0BDC0460C000020E9
:10247000B0B58CB0134604460BAD28700A9109A87C
:10248000027008A900220A700321079008460693EB
:102490000594049201F088FE012001F0F9FE0498F1
:1024A0000499049A01F00EFF07980178302909D3A6
:1024B000FFE70A993020039002F016F808A8039964
:1024C00001700AE00998401C0A99C0B202F00CF8A9
:1024D0000998401C08A90870FFE709A80078009037
:1024E00012200221112200230291019301F06CFFBE
:1024F0000BA800788021019A01F0D2FFE7480299E9
:10250000C17008A800780CB0B0BDC046E3480078A0
:102510007047C0460C00002010B58AB009A8002101
:102520000170DE4814300690FFF71CFF07A9087001
:102530000878202803D1FFE700F002FAADE007A8F1
:102540000078022803D1FFE700F0DAF9A4E007A839
:10255000007810285CD1FFE7F848417C827C891A1A
:10256000491C09AA1170C07C002813D1FFE7F34869
:102570000146113101220590104601F0FFFE059839
:10258000407C0699491C01F0F9FE0598417C069AA9
:1025900011700EE009A800780699F94A937CC918D1
:1025A000049201F0EBFE099804998A7C1018887453
:1025B000FFE7F34800210174069A1278921E08ABD7
:1025C0001A708174C174FF22009212220223112416
:1025D00003901046029119462246029B01F0F4FE38
:1025E000039880780299FFF719FF069801F090FF91
:1025F000002805D0FFE7E248143000F0C3FAFFE7F7
:102600000698FF21FDF7B3FDDD480121017442E08A
:1026100007A8007801283DD1FFE7D948C07C0028F1
:102620000BD1FFE70699012001F0A8FE069800787B
:10263000D349487400208874FFE7D148417C807CEE
:10264000081A401C09A908700878302821D3FFE730
:10265000CB48C07C002806D1FFE70698411C2F20FC
:1026600001F08CFE07E00698C549897C41183020AE
:1026700001F084FEFFE7C248817C30318174C07C68
:10268000002805D1FFE7BE48C17C491CC174FFE7A3
:10269000FFE7FFE7FFE7FFE7FFE70AB010BDC0462F
:1026A0000C00002080B586B0049000F03FF804983C
:1026B00000F0F6F8049908700498007840B20028F9
:1026C00003D0FFE70120059028E002A81549FFF795
:1026D000F3F9FFE7144801F07BFD00280ED0FFE777
:1026E000FFF794FE02A8FFF7F6F9002805D0FFE7F0
:1026F000049801210170059110E0EBE700200190A2
:102700000199019A01F0DEFD049880780199FFF7A4
:1027100085FE00F015F801980590FFE7059806B0D2
:1027200080BDC04610270000C84E000080B500F0F4
:1027300047F900F00CF800F09EF900F090F980BD28
:1027400080B540200A210322FEF762FB80BD10B550
:1027500096B010A818210F9001F0D2FB0020109025
:102760001190402104220E9008460D9111460F9BB6
:102770000C921A46FEF77EFB0D990B9008460C99B9
:102780000E9AFEF7CFFB0E99109111910F220A902D
:10279000084611460F9B09921A46FEF76BFB0E99ED
:1027A0000890084609990E9AFEF7BCFB012110918A
:1027B0000E9A119212911392149215910A230D9C64
:1027C00007902046069119460F9A0593FEF752FB93
:1027D0000D990490084605990E9AFEF7A3FB032174
:1027E0000D9A03901046059B02911946029AFEF736
:1027F0000FFB0699019008460299069AFEF76EF9BA
:1028000016B010BD10B588B00A46069005A8017034
:102810000078411D03A80292FFF74EF90698584927
:1028200088600120C8730598401C887300200873D5
:10283000887B097B884214DDFFE7514881788268F4
:10284000037BD218837B047B1B1BDBB20190084601
:1028500011461A46FFF70CFE01990A7B10180873FF
:10286000FFE74748007C012811D1FFE7FFE7444814
:10287000C07B01280AD1FFE703A8FFF72CF9002845
:1028800003D0FFE70120079004E0F0E7FFE7002016
:102890000790FFE7079808B010BDC0460C00002065
:1028A00080B582B0019000200090FFE700980228D8
:1028B0001ADCFFE7FFF7AAFD01F038FD0E4840687B
:1028C0000E49884204D0FFE701980121017006E01B
:1028D00001980021017001980121417004E0FFE797
:1028E0000098401C0090E1E70198007840B2411E3A
:1028F000884102B080BDC0464C0100203844000031
:1029000010B582B01E48817B007B814214DDFFE759
:102910001B4881788268037BD218837B047B1B1B56
:10292000DBB20190084611461A46FFF7A1FD019956
:102930000A7B10180873FFE702B010BD0C000020DE
:1029400010B584B00E48C07B002817D0FFE70C48B4
:1029500000210173C173FF2200921222022311246D
:1029600003901046029119462246029B01F02CFD6D
:10297000039880780299FFF751FDFFE704B010BD7E
:102980000C00002080B5FFF70BF880BD80B582B049
:10299000014601AA10701078642200911146FFF7D9
:1029A00017F802B080BD80B582B0014601AA107050
:1029B0001078642200911146FFF74AF802B080BDFA
:1029C00080B5FFF7DFFF80BD80B582B0014601AA68
:1029D000107010780091FFF7D9FF02B080BD80B56C
:1029E00082B0024601AB18700091FFE701A80178A0
:1029F0004A1E0270002908D0FFE7FF20FFF7C6FF3C
:102A000000994A1C00920870F0E702B080BD80B5C2
:102A100082B0014601AA107010780091FFF7C3FF41
:102A200002B080BD80B582B0024601AB1870009143
:102A3000FFE701A801784A1E0270002907D0FFE7CE
:102A40000098411C00910078FFF7ADFFF1E702B05C
:102A500080BD80B540200421FEF774FA80BD80B5AA
:102A600040200421FEF7C4F980BD80B540200A2132
:102A7000FEF7E4F980BD80B500200F21FEF762FA71
:102A800080BD80B500200F21FEF7B2F980BDF0B502
:102A900087B00D9C0C9D16460F46069005A8017048
:102AA00004A80270039302A8047068460021018004
:102AB000FFE70C98029909310170FFE7FFE70C98D6
:102AC0004178F8221140491D4170FFE7FFE70C985B
:102AD00041781F22114020314170FFE7FFE70C9839
:102AE00081780F221140059A120189188170FFE741
:102AF00004A80078002806D0FFE7FFE70C980499A7
:102B0000C170FFE7FFE702A80078002808D0FFE7C0
:102B10000C980830069902AA1278FDF70FFBFFE720
:102B20000C9803A9CA78C2718A7882714978417178
:102B30000399017101A801210170FFE701A8007844
:102B400002A90978083188420EDAFFE70C9801A93A
:102B50000978405C0099081869460880FFE70198E9
:102B6000401C01A90870E9E7684640780C9902AA60
:102B700013785918087200980C99127851184872F5
:102B800007B0F0BD80B582B00190019800F09EF8CA
:102B900002B080BD10B58AB009904A482030079035
:102BA000FFF7B4FC002801D0FFE740E00998FDF7EB
:102BB000E9FA08A9087008781F2804DBFFE708A8CD
:102BC0001E210170FFE7FFF7B1FDFFF7B9FD079880
:102BD000FF21C1708170417001700798012101715E
:102BE00007983A2141710798801D099908AA12781F
:102BF000FDF7A4FA07990690059100F013F90490E7
:102C000000F01DFF0899891D2E4A0092C9B201915A
:102C10000521059B03901846049C02922246039BC3
:102C2000FFF735FF0298017800F0C8F8FFE70AB017
:102C300010BDC04680B588B0224820300790FFF70D
:102C400065FC002801D0FFE739E0FFF76FFDFFF7D3
:102C500077FD0798FF21C17081704170017007985E
:102C60000121017107983821417107980021817174
:102C700007982821C17107980221417207983321D2
:102C8000017211484078079988720798069000F001
:102C9000C9F8059000F0D3FE0B210191094900917C
:102CA0000522069B0490184603911146059A049B41
:102CB000FFF7EDFE0398017800F080F8FFE708B019
:102CC00080BDC046F803002024010020B0B588B0C4
:102CD000079005A80021017004A8FF22027006A831
:102CE0000170FFE706A8007840B201282CDCFFE75E
:102CF00006A8007840B24321890041432E48405C39
:102D0000002804D1FFE7069804A90870FFE706A889
:102D1000007840B2432189000A464243264882187F
:102D2000526805AB1B785BB2594340184068824239
:102D300004D2FFE7069805A90870FFE7FFE70698A9
:102D4000401C06A90870CDE704A8007840B200280E
:102D500004D5FFE7059804A90870FFE704A80178E7
:102D600049B24322920013464B431349CB18083310
:102D7000079CFF25023503901846029121460192D7
:102D80002A46FDF7DBF903990A7852B2019B5343B7
:102D90000122029CE25405AA127852B2019B5343CD
:102DA000E21853685D1C55600A7852B2019D554384
:102DB0006219536008B0B0BD6001002080B586B0D4
:102DC0000A46059004A8017005990078039008460A
:102DD00003990292FFF716FD00210190084606B004
:102DE00080BD000083B080B585B00993089207913B
:102DF000049007A803900A4880210290FDF7B7F9D4
:102E00000499039A029801F0C1FB029901900846C7
:102E1000FFF7C0FE05B080BC01BC03B0864670471A
:102E200078030020024801784A1C02700846704767
:102E30004801002080B5FFF7FDFE80BD80B582B05F
:102E4000014601AA1070127886480723009119469E
:102E500000F064F902B080BD83B0024602AB188076
:102E600001910120009019880002814214DCFFE7E3
:102E700001980C490A68C007000C0123DB039A4340
:102E80001018086002A800880A68074B1840074B12
:102E90001A401018086002E004200090FFE7009834
:102EA00003B0704730140040FF01000000FEFFFF38
:102EB00010B584B003900020FFF7C0FF03980068AE
:102EC00068490A68C007000F08239A431018086071
:102ED0000398001D00F01AF803990969624A136803
:102EE0004907490D07242402A34359181160039987
:102EF0000A8B496902901046FFF7AEFF03991A3119
:102F00000190084600F044F804B010BD83B0019071
:102F10000120009001990968524A1368C907490CB9
:102F200080038343581810600198006800280AD174
:102F3000FFE7019880684B490A68072318409A43C5
:102F4000101808601CE001980068012816D1FFE7FE
:102F500001980079402805DBFFE7042000900098E5
:102F6000029012E0019800793E490A688006800CC0
:102F70003F231B029A431018086000E0FFE7FFE7B9
:102F80000020009000980290FFE7029803B070477D
:102F900084B00290002001907D20C0006946088026
:102FA000304800680006C00F002820D0FFE72E48F8
:102FB0000168012211430160FFE70098401E694645
:102FC00008800004002809D0FFE727480068800730
:102FD000C00F002801D0FFE700E0EEE76846008858
:102FE000002803D1FFE70920039037E0FFE70298AC
:102FF00000781E490860029840781D4908600298D0
:1030000080781C490860029800791B490860029882
:1030100040791A4908600298807919490860029835
:10302000C078184908601048016801229143016086
:103030000C4800680006C00F00280AD0FFE7FFE731
:10304000094800688007C00F002801D0FFE7F7E7B4
:10305000FFE70020019001980390FFE7039804B078
:103060007047C0460014004004140040081400409B
:103070000C14004010140040181400401C140040B0
:10308000201400401414004080B5C046C04680BDE6
:1030900080B592B00CA818210B9000F031FF0020F1
:1030A0000C900D9005210A9009910B9AFDF7E2FE14
:1030B00001210A9A08901046099B07911946079A20
:1030C000FDF730FF0A990C910D91072206900846F2
:1030D00011460B9B05921A46FDF7CCFE0A99049007
:1030E00008460599079AFDF71DFF07990C910A9A62
:1030F0000D9206230390104619460B9A0293FDF792
:10310000B9FE0A99019008460299079AFDF70AFF4D
:1031100012B080BD80B5C046C04680BD83B01346A6
:1031200002900191684602700078012808D1FFE7FB
:10313000019801218140029802680A43026007E079
:10314000019801218140029802688A430260FFE7EA
:1031500003B0704783B00190009101988068009996
:10316000084204D0FFE702A80121017003E002A891
:1031700000210170FFE702A8007803B0704782B019
:103180000190009101980021016000980268436855
:103190001A4383681A43C0680243402002430198DF
:1031A000026001988160084602B0704781B00090CB
:1031B0000098C068C0B201B0704782B00A46019062
:1031C0006846017000780199C860002002B070471D
:1031D00082B00A4601906846017000780199486003
:1031E00002B0704780B584B002900298401E000E75
:1031F000002803D0FFE70120039013E00298401E4F
:103200000A4908600020C143032201900846114684
:1032100000F002FE0648019901600648072202609C
:103220000391FFE7039804B080BDC04614E000E0BE
:1032300018E000E010E000E080B500F001F880BD8B
:1032400080B582B0FDF7D2FE0190FDF793FE02B08B
:1032500080BD000080B58CB00B9000200A900B98C8
:1032600000680428099026D80998C0467844007957
:103270004000874402030D111C001FE0032008904A
:1032800000F096FB08990790084600F057FB15E000
:10329000032000F013FB11E003200690069900F0D4
:1032A00099FB06990590084600F058FB06E00720B8
:1032B00000F0B2FA02E004200A90FFE70B980068E1
:1032C000012100F017F80B9909680490084600F0F6
:1032D00055FB0B9949680390084600F0DBF90B9900
:1032E00089680290084600F0E7F90A9901900846BB
:1032F0000CB080BD80B58CB00A460B900AA8017056
:10330000002109910892079000F040FD079801788C
:103310004A1E914101700B990429069100D9B2E02F
:103320000698C046784400794000874402214666EA
:103330008C000AA80078E9490A68012318409A43DA
:1033400010180860FFE70AA80078002100280591FE
:1033500007D0FFE7C4480068C00A01214840059033
:10336000FFE70598C007002801D0FFE7EBE78DE0F5
:103370004A4801680322114301600AA80078D7492E
:103380000A68C007800F02239A4310180860FFE7FD
:103390000AA8007800210028049107D0FFE74048E0
:1033A00000688009012148400490FFE70498C007A5
:1033B000002801D0FFE7EBE768E00AA80078C749DA
:1033C0000A68C007400F04239A4310180860FFE7FB
:1033D0000AA8007800210028039107D0FFE7A3483E
:1033E0000068000B012148400390FFE70398C007E5
:1033F000002801D0FFE7EBE748E0264801680322F8
:103400009203114301600AA80078B4490A68C00712
:10341000000F08239A4310180860FFE70AA80078F5
:1034200000210028029107D0FFE71B4800688009AF
:10343000012148400290FFE70298C007002801D010
:10344000FFE7EBE722E00AA80078A4490A68C00772
:10345000C00E10239A4310180860FFE70AA80078EE
:1034600000210028019107D0FFE7EA480068800C9E
:10347000012148400190FFE70198C007002801D0D2
:10348000FFE7EBE702E004200990FFE709980CB0A2
:1034900080BDC0468C0D0240182000404C1D0240EB
:1034A00010200040B0B58CB000200B906B4906AAEC
:1034B00018C918C238C938C269490A884988090434
:1034C0008918059101A9088102900190CB480088D4
:1034D0000881CB480088C880CA4800888880CA48CC
:1034E000008848805F48008808807C4800680006A3
:1034F000400F049004980428009000D9A0E00098A0
:10350000784400794000874402393C4E5200E84834
:103510000068E849084001A90989884203D1FFE70A
:103520000A980B9029E0E2480068E249084001A9A6
:10353000C988884203D1FFE709980B901CE0DC485A
:103540000068DC49084001A98988884203D1FFE767
:1035500008980B900FE0D6480068D649084001A9AA
:103560004988884203D1FFE707980B9002E006984C
:103570000B90FFE7FFE7FFE7FFE764E0A3480B904E
:1035800061E001A80088E0490968E04A11408842EA
:1035900004D1FFE705A840880B9003E005A8008848
:1035A0000B90FFE74FE00120C0030B904BE0A348D6
:1035B000006803210840032837D1FFE701A80089EC
:1035C000BB490968BB4A1140884203D1FFE70A980A
:1035D0000B9029E001A8C088B5490968B54A114097
:1035E000884203D1FFE709980B901CE001A880886E
:1035F000AF490968AF4A1140884203D1FFE70898F4
:103600000B900FE001A84088A9490968A94A114018
:10361000884203D1FFE707980B9002E006980B90D1
:10362000FFE7FFE7FFE7FFE702E078480B90FFE7DF
:103630000B9882490968C905090F41430B9102E0C3
:1036400000200B90FFE70B98D84909684905490FFE
:10365000C8400B900B980CB0B0BDC046B44E0000F3
:1036600034500000200C10000C20004014200040BA
:1036700080B582B000200190FFF714FF01900198FF
:10368000CA490968C904890FC8400190019802B06D
:1036900080BDC04680B582B0019000F077FB0198F4
:1036A000C2490A684007400D07231B029A431018BD
:1036B0000860002002B080BD80B582B0019000F0AB
:1036C00065FB0198B9490A688007C00C0323DB0237
:1036D0009A4310180860002002B080BD002000400E
:1036E00010B586B0049000200390694608810190CF
:1036F000009084480088088141480088C88041487B
:1037000000888880404800884880049880680328A2
:103710003CD1FFE76846008965490968654A114060
:10372000884205D1FFE70498C06802282AD8FFE73D
:103730006846C0885E4909685E4A1140884205D1E2
:10374000FFE70498C06802281CD8FFE76846808815
:1037500057490968574A1140884205D1FFE7049844
:10376000C06803280ED8FFE76846408850490968BA
:10377000504A1140884208D1FFE70498C0680728E2
:1037800003D3FFE70620059034E00BE00498C068FF
:103790001E4941431E48814203D3FFE7062005909E
:1037A00028E0FFE70498006824490A688007400C75
:1037B00003235C03A24310180860049840680A6859
:1037C0004007C00E1C24A243101808600498C0686B
:1037D0000A680007C00D0F246401A2431018086096
:1037E000049880680A6818409A4310180860039883
:1037F0000590FFE7059806B010BDC046000C10000C
:10380000020C1000040C1000060C10000048E80127
:10381000016CDC023C20004082B00190002000904E
:10382000019806490A684007800B0723DB039A4387
:1038300010180860009802B07047C0463C20004055
:1038400080B582B00A4601906846017001A80078F0
:10385000800600280BD5FFE70198202188430190BE
:103860000199684602780848FFF758FC06E001997C
:10387000684602780348FFF751FCFFE7002002B0DA
:1038800080BDC046202000402420004081B0009030
:10389000009840001B49405A05490A68054B1840EA
:1038A000054B1A4010180860002001B07047C04650
:1038B0000C200040FF07000000F8FFFF82B00190DD
:1038C00000200090019810490A688007000D03232A
:1038D0009B029A4310180860009802B07047C046D7
:1038E00081B00090009840000649405A06490A6895
:1038F000064B1840064B1A4010180860002001B013
:103900007047C046000C100014200040FF03000068
:1039100000FCFFFF80B582B0019000F037FA0198FB
:1039200005490A684007000D07235B029A431018F7
:103930000860002002B080BD0420004082B00190E9
:1039400000200090019822490A688007800E3023E9
:103950009A4310180860009802B0704782B0019036
:1039600000200090019827490A688007800E3023C4
:103970009A4310180860009802B0704780B584B070
:103980000390002002900398019000F0FFF9019845
:1039900006490A684007000EE0239A4310180860A1
:1039A00000F032F8029804B080BDC046002000400C
:1039B00082B0019000200090019805490A68032315
:1039C00018409A4310180860009802B07047C0462B
:1039D0001020004083B002900191002000900298D6
:1039E00008490A688007000F0C239A4310180860E2
:1039F00001980A68032318409A4310180860009839
:103A000003B070471820004080B5FFF74BFD014917
:103A1000086080BD0800002080B5FFF7F5FF80BD7D
:103A200080B50220FDF7A3F880BD80B50120FDF729
:103A300087F880BD80B50020FDF782F880BD80B595
:103A4000FB20FDF7B9F880BD80B584B0014603AA1C
:103A500010801088022202901046029A01911146AD
:103A6000FDF714F904B080BD80B584B0014603AA07
:103A700010701078012202901046029A01911146AE
:103A8000FDF7D0F804B080BD80B584B0014603AA2C
:103A900010701078002202901046029A019111468F
:103AA000FDF7C0F804B080BD80B5C046C04680BDFB
:103AB00080B5C046C04680BD80B5C046C04680BD0A
:103AC00080B5C046C04680BD80B5C046C04680BDFA
:103AD00080B5C046C04680BD80B5C046C04680BDEA
:103AE00080B500F06BF8C046C04680BD80B58EB092
:103AF00008A81821079000F003FA00200890099008
:103B00000D90092106900591079AFDF7B3F901215F
:103B1000069A04901046059B03911946039AFDF7F7
:103B200001FA03990891069A09920D920A230290CC
:103B300010461946079A0193FDF79CF906990090E3
:103B400008460199039AFDF7EDF90EB080BD80B5E6
:103B500000F044F8C046C04680BD80B58EB008A8CD
:103B60001821079000F0CCF90020089009900D90E2
:103B7000022106900591079AFDF77CF90121069A2A
:103B800004901046059B03911946039AFDF7CAF964
:103B900003990891069A09920D9203230290104608
:103BA0001946079A0193FDF765F9069900900846B2
:103BB0000199039AFDF7B6F90EB080BD80B50120DA
:103BC0008007002100F042F8002806D0FFE701201E
:103BD0008007002100F012F8FFE780BD80B506489D
:103BE000002100F033F8002805D0FFE7024800214B
:103BF00000F004F8FFE780BD0001004080B584B00C
:103C00000390029103981430029900220192FFF769
:103C100085FA019804B080BD80B582B00190009112
:103C20000198001D00990122FFF778FA002002B0E8
:103C300080BD80B582B0019000910198001D00996F
:103C40000122FFF76BFA002002B080BD80B584B07E
:103C50000390029101A80021017003991031029A8A
:103C6000009008461146FDF7A5F8009908700878FD
:103C700004B080BD80B588B0069005910120049005
:103C8000214841680391006802900598002803D1FB
:103C9000FFE70420079034E0069800214160059872
:103CA000816842681143C268114300680143069865
:103CB000416005980068402805D0FFE70598006836
:103CC000C02819D1FFE70598C068400A800002A902
:103CD000085801A908800598026940690988884048
:103CE000009010460099FCF713FA0699886106982F
:103CF0000421FFF791FFFFE700200490049807904C
:103D0000FFE7079808B080BD3850000080B5C04676
:103D1000C04680BD80B5C046C046C046C04680BDD6
:103D200080B5C046C04680BD02481E210160E12129
:103D300001607047800F004080B584B0039002910D
:103D40000120019002A8007800F00EF803980E49B7
:103D50000A68C007800E20239A43101808600020CC
:103D60000190019804B080BD10B581B001466A464B
:103D700010701078044A13680F242040A3431818C9
:103D8000106001B010BDC046840F004002480349D6
:103D90000160034901607047082000405A5A000042
:103DA000A5A5000081B000900098002808D4FFE786
:103DB00000981F2108400121814002480160FFE76F
:103DC00001B0704780E200E081B0009000980028C8
:103DD0000CD4FFE700981F210840012181400448CE
:103DE0000160BFF34F8FBFF36F8FFFE701B07047E4
:103DF00080E100E081B000900098002808D4FFE73F
:103E000000981F2108400121814002480160FFE71E
:103E100001B0704700E100E070B582B00190009100
:103E20000198002814D4FFE701980321C9430840F2
:103E3000324A8058019B9C07E40EFF25A540A84309
:103E4000009DAD01EDB2A54028430B40985018E00D
:103E500001980F21084008380322D2431040264B16
:103E6000C058019CA507ED0EFF26AE40B043009E52
:103E7000B601F6B2AE4030430C40083C1440E0506E
:103E8000FFE702B070BDC04670B582B001900091EE
:103E90000198002814D4FFE701980321C943084082
:103EA000164A8058019B9C07E40EFF25A540A843B5
:103EB000009DAD01EDB2A54028430B40985018E09D
:103EC00001980F21084008380322D24310400A4BC2
:103ED000C058019CA507ED0EFF26AE40B043009EE2
:103EE000B601F6B2AE4030430C40083C1440E050FE
:103EF000FFE702B070BDC0461CED00E000E400E04A
:103F000083B002900191029800900098002801D19E
:103F1000FFE70CE0FFE70198411E0191002806D061
:103F2000FFE70098411C009100210170F3E703B006
:103F30007047000010B592B0002011900F90FDF76F
:103F40003CFBFDF786FB0F20FDF72AFBFFF7AAFAE3
:103F5000FDF7F2F8FDF7A4FDFDF7C9FBFDF72CFB1B
:103F6000FDF716FCFDF784F808210F98FCF740FFD9
:103F700064210E9008460D91FDF7ECF8FFF7D4FE92
:103F8000FCF7CCFDFCF7C2FEFDF7A5FF7D48FEF770
:103F900089FB4B21C9010C9008460B91FDF7C7FD29
:103FA0000B98FDF701FEFFF7BFFEFDF727F8012094
:103FB000962114220A9009910892FCF70BFC0D98A7
:103FC000FDF7C8F8022046211922079006910592B4
:103FD000FCF700FC0998FDF7BDF80A980999089AC2
:103FE000FCF7F8FB0D98FDF7B5F807980699059AC8
:103FF000FCF7F0FBFFF71EFD6349087108792828DC
:1040000007D0FFE76048282101710079FFF73CFDE8
:10401000FFE7FFF70AFD5C4948714879012804D1A0
:10402000FFE75A480121017026E0574840790328EC
:1040300004D1FFE75548032101701CE05248407944
:10404000042804D1FFE751480421017012E04E48D2
:104050004079022804D1FFE74C480221017008E0B2
:104060004A4802210170484841714079FFF7FCFC41
:10407000FFE7FFE7FFE7FFE7FFF7D2FC4249C88011
:10408000C888652807DBFFE73F480021C180C0885A
:10409000FFF7DAFCFFE73C4801794279C3883C4CE2
:1040A00004902046FEF79EFE0498C188491C88B201
:1040B000FFF7CAFCFFF738FE3648FEF793FE0F20E5
:1040C000C002FDF7C0FD344903900846FEF78AFEA2
:1040D0002E48012141700290FFF7B1FC029948601F
:1040E000FFE72A488078002834D0FFE70A20FDF750
:1040F00031F8FFF719FEFEF79DFEFCF737FF0321AD
:10410000FCF706F864224A4301901046FDF722F8B6
:1041100000201090FFE710982049884208DCFFE754
:104120000120FDF717F8FFE71098401C1090F2E708
:10413000FCF718FF782801D3FFE7FFE7FCF712FF31
:10414000174941430120C1411648814201D8FFE788
:10415000FFE7C6E7FFE7FFE70B484079012801D1F9
:10416000FFE70EE008484079032801D1FFE707E0A8
:1041700005484079042801D1FFE700E0FFE7FFE7A9
:10418000FFE7E9E70C000020FC04002024010020E8
:10419000405000005A5000005D50000083030000B2
:1041A000CDCCCCCC9999991980B584B0014603AA9D
:1041B0001070CC4834220270039A4270022202909E
:1041C0001046029A01911146FEF73AF804B080BDFC
:1041D00080B586B00490FFE70498007800284ED0A0
:1041E000FFE70498411C0491007802A90870087840
:1041F000112804D3FFE705A80421017043E003A8B8
:1042000000210170FFE703A8007802A9097888421D
:104210000FDAFFE70498007803A90978B14A5054EF
:104220000498401C0490FFE70398401C03A9087001
:10423000E9E702A80078AB4900220192019BFEF752
:1042400031F8FF2804D0FFE705A8022101701AE029
:10425000FEF70BFC002811D1FFE700200090009929
:10426000009A00F02FF8444880790007002804D510
:10427000FFE705A80421017005E0FFE7ACE705A80A
:1042800000210170FFE705A8007806B080BDC04698
:1042900080B584B0014603AA1070924815220270BE
:1042A000039A4270022202901046029B0191194625
:1042B000FDF7F8FF02990A782F4B1A704A785A7066
:1042C00004B080BD70B588B013460C46054607AEF5
:1042D000307006A8017005A8027082482021017084
:1042E00007994170069981700599C17004210822CF
:1042F000049008460499049E039333460294019562
:10430000FDF7D0FF04990A781B4B1A704A785A704F
:104310008A789A70CA78DA700A791A714A795A7169
:104320008A799A71CA79DA7108B070BD10B582B015
:104330006C48012101700822019008460199019BF7
:10434000FDF7B0FF01990A780B4B1A704A781202F8
:104350005A608A785C6814435C60CA781A720A7979
:104360001202DA604A79DC681443DC608A791A74D4
:10437000CA795A7402B010BD4C01002010B584B047
:10438000024603AB187002911878029B7721002433
:10439000019008462146019C00922246FDF70CFF41
:1043A00004B010BD80B582B0FEF753FB0F20019022
:1043B000FCF7D0FEFEF753FB0198FCF7CBFEFDF7B0
:1043C00089FE02B080BD000081B0B0B585B0099310
:1043D0000B46044604AD287003A8017002924148C0
:1043E0001121017004994170039981700299C17083
:1043F00009A80190684604210170FFE703A801782D
:104400004A1E027000290CD0FFE70198011D01919E
:10441000006869460A78334B98540098401C08702D
:10442000ECE7684600782F49FDF70AFF05B0B0BCFD
:1044300001BC01B086467047F0B58DB0139C129D4B
:104440001E4617460691059004900CA80390059807
:104450000291039908700BA9069808700AA90A80AE
:1044600009AA137008AA157007AA14701D4A3223EE
:1044700013700C9B53700B9B93704978D1700A9901
:10448000117109995171089991710799D171082099
:10449000114601960097FDF7D3FE0DB0F0BDC04662
:1044A00070B586B013460C46054605AE307004A8BC
:1044B000017003A802800B4931220A70059A4A70E4
:1044C000049A8A704078C870039808710020487177
:1044D00088710720029301940095FDF7B1FE06B0A4
:1044E00070BDC0463801002010B584B0024603AB51
:1044F000187002911878029B6621002401900846EA
:104500002146019C00922246FDF7E6FE04B010BD54
:1045100085B0039002A800210180039800786946C5
:10452000088001A801210180FFE701A800886946F1
:104530000988491E88420EDAFFE7039801A9098815
:10454000405C0299081802A90880FFE70198401C06
:1045500001A90880E9E703980178891E017002A883
:104560000088039901AA12888B18895C09025A787D
:104570008918884203D1FFE70120049002E000205F
:104580000490FFE7049805B07047000037B5144663
:104590000846064B6A46214600F0EAF8044669469A
:1045A000002000F081FC20463EBD0000A94E000026
:1045B0002021020C01D010211046020A01D0104621
:1045C0000839020901D01046091F820801D010469F
:1045D000891E420801D0881E7047081A704702E001
:1045E00008C8121F08C1002AFAD17047704700207E
:1045F00001E001C1121F002AFBD17047F0B51FB4C2
:1046000086B00998089A030D0021024314D051483E
:10461000514A1818504305141198012810981AD0BF
:10462000281A401C00264D4F4D49009601910490D8
:10463000002812DA444211E01198012449A301280C
:1046400001D11098C1430698119A84600360C2603A
:1046500041600BB0F0BD4042E4E704462105002074
:104660003F4A001C51410391029012E0E00707D03D
:1046700032463B4601990098FBF73EFE01910090BF
:1046800032463B4610461946FBF736FE06460F46B5
:104690006410002CEAD10498039B0028029A09991F
:1046A000089806DAFBF728FE019B009AFBF724FE28
:1046B00005E0FBF789FE019B009AFBF785FE0446A7
:1046C0000E460022284BFBF7DBFF03D80020C04337
:1046D000014607E00022254B20463146FBF75AFDF4
:1046E000FBF7AEFF102409E0002C0ADB0A220023AE
:1046F000FBF7E2FE079B30321A55641E02460A435E
:10470000F2D11122641C079B121B1C19119B012B57
:1047100003D0012308430ED10AE0084304D011203E
:1047200010900020119077E71098151A6D1E0BE07D
:104730001098824202DD00236D1C03E0824201DA00
:1047400000236D1E002BEED0069811998260C16087
:1047500030C07EE701FCFFFF104D00000000144058
:104760000000F03F300000000000F0430000E03F98
:10477000FFB597B00646002518E2252877D100241A
:104780002746FD49049400E00443761C327801205A
:10479000203A90400842F7D130782A280ED00222E1
:1047A000307801463039092916D804990A2359432B
:1047B000303940181443761C0490F1E7189802C869
:1047C00004911890002904DA012040030443484270
:1047D000049002200443761C30782E2814D1042043
:1047E00004437078761C2A2809D11898761C80C852
:1047F000189009E00A214F43303FC719761C3078E2
:10480000014630390929F5D930786C2810D006DCFA
:104810004C281AD068280ED06A2817D104E07428D2
:1048200013D07A2812D110E00120400504430CE097
:104830000121090501E0032109050C43717881423A
:1048400003D1012000052418761C761C30781190C5
:1048500066280BD013DC58287DD009DC00287BD0DB
:104860004528F6D04628F4D047281AD1A5E118E00B
:10487000632835D0642870D0652812D19DE1702856
:104880006CD008DC6728F1D069287BD06E280DD069
:104890006F2806D1BAE073282ED0752871D07828F9
:1048A00059D01A9A199990476D1C7EE16002400F09
:1048B000022809D003280DD00428189801680DD0CB
:1048C0000D60001D189070E11898EA1701680D60DE
:1048D0004A60F6E7189801680D80F2E70D70F0E77E
:1048E00018986A4601781172001D189000205072C5
:1048F00002A80090012005E0189802C81890002036
:104900000091C04361070DD5002101E00199491CC8
:104910000191B94212DA8142F8DB009A515C002918
:10492000F4D10BE0002101E00199491C0191814281
:10493000FADB019A0099895C0029F5D10199049864
:104940001A9B471A21463846199A00F097FA01999E
:10495000401945180BE04FE02CE113E04EE00098C1
:1049600000990078491C00911A9A1999904701986A
:10497000401E0190401CF2D1214638461A9B199ADC
:1049800010E137E00A200021009001916002410F00
:10499000022907D0189A01CA1892C217944603290F
:1049A00008D00AE01898C01DC108C90005C91891AF
:1049B000944607E000B2C2179446042902D140B2DF
:1049C000C1178C4600226146944506DA0A4600214A
:1049D000404291418C462D2102E0210504D52B2136
:1049E0006A461173012103E0E10701D02021F7E7B6
:1049F000029155E00A200AE0102008E01020009003
:104A00000021042004430191082703E0082000212D
:104A1000019100906002410F022907D0189A01CA43
:104A2000189200229446032908D008E01898C01D67
:104A3000C108C90005C91891944603E080B2042951
:104A400000D1C0B200210291210729D51199702906
:104A500006D0009A1021019B4A401A4305D00EE06F
:104A600040216A461173012108E06146014306D0E6
:104A700030216A4611731199517302210291009AF3
:104A80000821019B4A401A430AD16146014301D1E2
:104A9000610705D530216A46117301217F1E0291FD
:104AA0001199582904D035A10E910DA90D910DE051
:104AB00037A1F9E76146019B009AFBF7FDFC0E9BCD
:104AC0008C469B5C0D9A521E0D92137061460143F9
:104AD000F0D10D9805A9081A20300190600703D580
:104AE00001200004844300E001270198874201DD92
:104AF000381A00E000200199009041180298091826
:104B00000498401A0490E00306D421461A9B199A8F
:104B1000049800F0B3F94519002706E003A81A9A93
:104B2000C05D199990476D1C7F1C02988742F5DB88
:104B3000E0030CD521461A9B199A049800F09EF9BF
:104B4000451904E01A9A3020199990476D1C009974
:104B5000481E00900029F5DC08E00D980D990078BA
:104B6000491C0D911A9A199990476D1C0199481E7C
:104B700001900029F1DC63E1092801003031323372
:104B80003435363738396162636465660000000089
:104B90003031323334353637383941424344454673
:104BA0000000000000F05AF94519761C3078002802
:104BB00000D0E2E528461BB0F0BD600700D4062710
:104BC0001898C01DC108C90048680A680831C30F99
:104BD000DB071891190001D09CA108E0210501D53F
:104BE0009BA104E0E10701D09AA100E09AA1430053
:104BF00011985B08109165280CD006DC452809D077
:104C000046281DD0472841D141E0662818D06728A2
:104C10003CD13CE00021112F01DB112000E0781C89
:104C20000191009008A911A8FFF7E8FC13990591DC
:104C30000021119A15927F1C12980197009150E063
:104C40000120C00703900120019008A9009711A836
:104C5000FFF7D4FC139A149905920022119B00923D
:104C600012981593059A0192002901D0104602E08E
:104C7000791C40180190381A01D5019804E040428F
:104C8000401E0090781C0190C01B029043E0012F51
:104C900000DA01270021112F01DD112000E0384644
:104CA0000191009008A911A8FFF7A8FC139905919C
:104CB000119A0021129815920091019721070CD4A6
:104CC0000599B94201DB019900E00191012904DD58
:104CD000159A491E515C302906D0B84201DA011DEF
:104CE00005DA0121029115E00199491EEDE700283E
:104CF00005DC0099411800910199091A03E0019A15
:104D0000411C914200DD01910099401A401C029023
:104D10000120C0070390200706D402990198814220
:104D200002DB0020C043029000206946C87707AF2D
:104D3000012103980337C907884224D0022011902B
:104D40002B201290039800280CDA404203902D206B
:104D5000129007E00A210398FBF7DAF930317F1E41
:104D6000039039701199481E11900029F2DC0398C4
:104D70000028EFD1791E1298087030782021084061
:104D80004530BF1E387006A8C01BC01D0390109888
:104D90000078002800D00120019941180298C0171E
:104DA0000918039809180498401A401E0490E0035B
:104DB00006D421461A9B199A049800F05FF8451909
:104DC00010980078002803D01A9A199990476D1C02
:104DD000E00324D521461A9B199A049800F04EF856
:104DE00045191CE00098002807DB009905988842C7
:104DF00003DD1598405C199901E0199930201A9A41
:104E0000904700986D1C401C00900298401E029034
:104E1000002804D11A9A2E20199990476D1C0199E7
:104E2000481E01900029DDDC05E038781A9A7F1CC5
:104E3000199990476D1C0399481E03900029F4DCD2
:104E400021461A9B199A0498ACE600002D00000038
:104E50002B0000002000000000000000F8B5044610
:104E600000251E461746880404D405E03946202054
:104E7000B0476D1C641EF9D52846F8BDFFB5044641
:104E8000002581B01E46C80301D5302700E0202749
:104E9000880404D505E038460399B0476D1C641EAC
:104EA000F9D5284605B0F0BD0A68531C0B60107098
:104EB0007047000000093D0000127A000024F40051
:104EC0004086510100366E010702010001C9C3800E
:104ED000081300000000000000061100020052004C
:104EE00005110001036006110102000133081102DF
:104EF0000400000000000D111009000414000F123E
:104F000000000000091111050003B4D2D2B40B1146
:104F1000120700800108FFFF08021011120C082A76
:104F20000100303000010600003F021011120C1485
:104F30000000000000000000000000001011120C32
:104F4000200000000000000000000000000D111211
:104F5000092C0000000000000000001011200C00CF
:104F60000200070F424001C9C380000D0511200156
:104F70000CA70C1120081801000803800010200D58
:104F800011200922004B06D3A006D402000B1120E9
:104F9000072C002386D400D3A00511200135E20799
:104FA000112003381110100511200140280D112087
:104FB0000942A403D60301AA0180FF051120014C78
:104FC00000051120014E4005112001510A10112148
:104FD0000C00FFC4307FF5B5B8DE0517160C1011B4
:104FE000210C0C030015FF0000FFC4307FF5B51045
:104FF00011210C18B8DE0517160C030015FF000070
:1050000008112204000814003D0B1123070034048A
:105010000B040770031011300C00000000000000AA
:105020000000000000000C114008003E0AAAAA443B
:105030004420FE00008000960400000003000000F1
:10504000426F6F742D25642D6D6F64652D25642D61
:10505000636F756E742D25642D00496E0045727264
:1050600000426F6F743A20454550524F4D204572B3
:10507000726F7221212100426F6F743A204E4F529D
:10508000204572726F72212121000000B050000093
:105090000000002030010000CC060000C8500000D5
:1050A00030010020E0070000EE4500000000000095
:1050B00042015201D7093D0001002403FF0101A173
:0850C000A40200010000000041
:04000005000000C136
:00000001FF
