:020000040000FA
:1000000020040020D5000000EF000000C10800001F
:1000100000000000000000000000000000000000E0
:10002000000000000000000000000000F3000000DD
:100030000000000000000000F5000000750D000049
:10004000230900002B090000330900003F090000CC
:100050007F020000751500009515000003160000D2
:10006000FB08000003090000D90C0000E10C0000AF
:10007000D7080000DF0800005D15000065150000CE
:100080006D150000EF0800007D15000085150000CB
:100090008D15000013090000D5170000A909000004
:1000A000610100001B090000C1170000C917000012
:1000B0000B090000E7080000C702000077020000FB
:1000C0000348854600F03AF800480047E719000069
:1000D0002004002009480A4A002100A1814200D9D9
:1000E0000244084802600848804708480047FEE785
:1000F000FEE7FEE7FEE7FEE7FEE700000000002067
:100100000000000008ED00E055150000C1000000EF
:1001100030B50B46014600202022012409E00D469F
:10012000D5409D4205D31D469540491B2546954027
:1001300040191546521E002DF1DC30BD064C01253C
:10014000064E05E0E36807CC2B430C3C984710347F
:10015000B442F7D3FFF7B8FFDC1A0000FC1A000026
:1001600080B5C046C046C046C04680BD80B58AB096
:10017000014609AA107003A818230291194601929A
:1001800001F018FC00200390049005900690079061
:10019000089001980178C907002905D0FFE74020A1
:1001A000082100F039F904E04020082100F0BCF8F3
:1001B000FFE74020082103AA00F0C6F80AB080BD7E
:1001C00080B588B0014607AA108006A800220280E8
:1001D000FFE706A8008807A90988490088421BDABA
:1001E000FFE7402008210590049100F015F9F52162
:1001F00003900846029100F0C7F90598049900F0B1
:1002000093F802990190084600F0BEF9FFE70698BE
:10021000401C06A90880DCE708B080BD70B588B036
:1002200013460C46054607AE308006A8018005A897
:10023000028000200390029301940095FFF796FF3F
:1002400004A803990180FFE704A8008807A909888A
:1002500088420EDAFFE706A80088FFF7B1FF05A87D
:10026000008800F07BF9FFE70498401C04A908808F
:10027000EAE708B070BD80B5C046C04680BD80B515
:10028000C046C04680BD80B586B013460590049137
:1002900003A80270059902900846019301F0DCFA68
:1002A0000598049901F04AFB02980178012904D1CC
:1002B000FFE7059801F0F8FA03E0059801F0DEFA8F
:1002C000FFE706B080BD80B5C046C046C046C04608
:1002D00080BD000082B001900020009008480949CC
:1002E000016009490160019808490A688007000F08
:1002F0000C239A4310180860009802B07047C0465B
:100300002C0002405A5A0000A5A50000200002401F
:1003100082B001900091019800680099C8400121C5
:10032000084002B07047000080B582B00190009193
:100330000198044940180099012200F0D5FC0020E2
:1003400002B080BD140D024080B584B003900291CC
:10035000019203982149401802990022009200F06E
:10036000C3FC03980299890040182A49009A425018
:1003700003981B4940180299019B1A7800F0B4FCBD
:100380000398184940180299019A127900F0ACFCC0
:100390000398154940180299019A127A00F0A4FCBA
:1003A0000398124940180299019A127B00F09CFCB4
:1003B00003980F4940180299019A127C00F094FCAE
:1003C000019840690B490A68C007000C0123DB0350
:1003D0009A4310180860009804B080BD0C0D0240CC
:1003E000000D02401C0D0240200D0240240D024071
:1003F0002C0D0240080F024083B002900191009240
:1004000000980299019A92008918024A88500020A7
:1004100003B07047000C024080B582B0019000919B
:100420000198044940180099012200F05DFC002069
:1004300002B080BD100D0240224800687047C046DF
:1004400080B5FFF7F9FF194908600868184909687D
:10045000884214D9FFE71548006815490968401A11
:10046000C0087D280BD3FFE712480168491C0160D2
:100470000F4801687D22D2008918016014E00C4801
:1004800000680A490968081AC0087D280BD3FFE7ED
:1004900008480168491C0160054801687D22D200B6
:1004A00089180160FFE7FFE7002080BD08000020F9
:1004B0000C0000201400002002480168491C016063
:1004C000002070471800002086B0059000200090A2
:1004D0004A480068039005984949096841436420E7
:1004E00048430490474800680290FFE74548006889
:1004F00001900198029988421ED0FFE70198029965
:10050000884207D2FFE702980199401A009908181B
:10051000009008E003980199401A02994018009948
:1005200008180090FFE7019802900098049988420B
:1005300001D3FFE701E0FFE7D8E706B07047C04608
:1005400080B582B0019001980349FFF7E1FD2C4985
:10055000086002B080BDC04640420F0080B582B046
:10056000019000200090FFE700980199884208D28E
:10057000FFE70A20FFF7A8FFFFE70098401C009064
:10058000F2E702B080BD000086B005900020009028
:100590001A48006803900598194909684143049175
:1005A000184800680290FFE716480068019001981B
:1005B000029988421ED0FFE701980299884207D22B
:1005C000FFE702980199401A00990818009008E086
:1005D00003980199401A0299401800990818009050
:1005E000FFE70198029000980499884201D3FFE741
:1005F00001E0FFE7D8E706B07047C04614E000E02E
:100600001000002018E000E080B582B00190019950
:10061000002001F0EBF8009001F0E0F802B080BD9E
:1006200080B588B00F200121079100F0A7FE1821A6
:1006300006900846079900F0A1FE1F210590084684
:10064000079900F09BFE142104900846079900F0DA
:1006500095FE1C2103900846079900F08FFE0021AB
:1006600002900846079900F089FE07990190084614
:1006700000F084FE08B080BD80B596B0112000F077
:10068000CDFE022101220E9008460D9111460C92DA
:1006900000F0CEFB0D990B90084600F00DFF0021F5
:1006A0000A900846099100F08FFE099908900846C3
:1006B0000C9900F0BDFB03211291042213921491B6
:1006C0000D99159112AB07901846069200F0A6FD01
:1006D00007210590084600F03DFE06990490084663
:1006E0000C9900F0A5FB0C9903900846FFF7F2FD6A
:1006F00006990F91099A109211920FAB0290184629
:1007000000F046FB0D9901900846099900F090FB16
:1007100016B080BD70B594B00BA824210A9001F0EA
:1007200049F9062000F094FE11210990084600F0D6
:1007300075FE022101220890084607911146069293
:1007400000F076FB06990B91079A0F920A9B1A33D9
:1007500020249C7103230A9DEB77A97712262E771C
:100760003026EE760026AE7605902046049303965A
:1007700000F0EBF804990290084600F0E6F80699BC
:100780000190084600F0E1F80299009008460199AE
:10079000009A00F00DF900F0EBF80A9948770698F6
:1007A0001090039A0A83084600F0AAF9069800F010
:1007B0006DF914B070BD000080B5044800687D215B
:1007C000C900FFF7A5FC00F0ABFA80BD00000020D7
:1007D00080B590B00F9000F0E3FE09A818210890B2
:1007E00001F0E8F8C020099000200B900A900F99C2
:1007F0000E9101214A020C920790069100F0D6FC5E
:100800000D90069881070846089A0591114600F058
:100810008BFF059904900846069900F049FF059959
:1008200003900846079900F043FF05990290084697
:10083000079900F058FF0621019008460699069A8C
:10084000FFF721FD10B080BD80B590B00F9000F093
:10085000DEFE09A81821089001F0ACF8C02009902C
:1008600000200B900A900F990E9101214A020C92E0
:100870000790069100F09AFC0D9010480590089999
:1008800000F052FF059904900846069900F010FF09
:10089000059903900846079900F00AFF0599029010
:1008A0000846079900F01FFF0721019008460699A6
:1008B000069AFFF7E8FC10B080BDC046000100407A
:1008C00081B000200090FFE70098002801D1FFE7E9
:1008D000FAE701B0704780B5C046C04680BD80B51C
:1008E000C046C04680BD80B5C046C04680BD80B50C
:1008F000C046C046C046C04680BD80B5C046C04662
:1009000080BD80B5C046C04680BD80B5C046C046EB
:1009100080BD80B5C046C04680BD80B5C046C046DB
:1009200080BD80B5C046C04680BD80B5C046C046CB
:1009300080BD80B5C046C046C046C04680BD80B5BB
:10094000C046C046C046C04680BD82B0014601AA2E
:10095000107000200090107800090A234343009390
:10096000009812780F231A408018C0B202B0704766
:1009700082B0014601AA107000200090FFE701A894
:1009800000780A2808DBFFE70098401C00900198D7
:100990000A3801A90870F2E700980007000E01A9C3
:1009A0000978084302B0704780B5C046C04680BD94
:1009B00070B58EB013460C4605460DAE30700CA8CF
:1009C00001700BA90A7000210A91099131787D22EA
:1009D000120189180A91007802282AD8FFE70CA88A
:1009E0000078172141430920089008460899FFF72D
:1009F0008FFB0BA9097840180A994018491E8A08EC
:100A0000801864220790084606911146FFF780FB84
:100A10000799081A19210901069A05901046FFF74F
:100A200077FB05990818001D0721FFF771FB099155
:100A300028E00CA8007817214143092004900846BB
:100A40000499FFF765FB0BA9097840180A9940182B
:100A50008A08801864220390084602911146FFF725
:100A600057FB0399081A19210901029A01901046AF
:100A7000FFF74EFB01990818801C0721FFF748FB80
:100A80000991FFE709A800780EB070BD80B582B06B
:100A9000014601AA10701278864807230091194672
:100AA00000F022F902B080BD83B0024602AB18808C
:100AB00001910120009019880002814214DCFFE7B7
:100AC00001980C490A68C007000C0123DB039A4314
:100AD0001018086002A800880A68074B1840074BE6
:100AE0001A401018086002E004200090FFE7009808
:100AF00003B0704730140040FF01000000FEFFFF0C
:100B000010B584B003900020FFF7C0FF0398006881
:100B100068490A68C007000F08239A431018086044
:100B20000398001D00F01AF803990969624A1368D6
:100B30004907490D07242402A3435918116003995A
:100B40000A8B496902901046FFF7AEFF03991A31EC
:100B50000190084600F044F804B010BD83B0019045
:100B60000120009001990968524A1368C907490C8D
:100B700080038343581810600198006800280AD148
:100B8000FFE7019880684B490A68072318409A4399
:100B9000101808601CE001980068012816D1FFE7D2
:100BA00001980079402805DBFFE7042000900098B9
:100BB000029012E0019800793E490A688006800C94
:100BC0003F231B029A431018086000E0FFE7FFE78D
:100BD0000020009000980290FFE7029803B0704751
:100BE00084B00290002001907D20C00069460880FA
:100BF000304800680006C00F002820D0FFE72E48CC
:100C00000168012211430160FFE70098401E694618
:100C100008800004002809D0FFE727480068800703
:100C2000C00F002801D0FFE700E0EEE7684600882B
:100C3000002803D1FFE70920039037E0FFE702987F
:100C400000781E490860029840781D4908600298A3
:100C500080781C490860029800791B490860029856
:100C600040791A4908600298807919490860029809
:100C7000C07818490860104801680122914301605A
:100C80000C4800680006C00F00280AD0FFE7FFE705
:100C9000094800688007C00F002801D0FFE7F7E788
:100CA000FFE70020019001980390FFE7039804B04C
:100CB0007047C0460014004004140040081400406F
:100CC0000C14004010140040181400401C14004084
:100CD000201400401414004080B5C046C04680BDBA
:100CE00080B5C046C04680BD83B0134602900191D6
:100CF000684602700078012808D1FFE701980121B9
:100D00008140029802680A43026007E001980121CD
:100D10008140029802688A430260FFE703B070478F
:100D200080B584B002900298401E000E002803D0C7
:100D3000FFE70120039013E00298401E0A49086073
:100D40000020C143032201900846114600F0BEFD79
:100D50000648019901600648072202600391FFE7F7
:100D6000039804B080BDC04614E000E018E000E045
:100D700010E000E080B500F001F880BD80B582B0E1
:100D8000FFF79AFB0190FFF75BFB02B080BD00000C
:100D900080B58CB00B9000200A900B980068042856
:100DA000099026D80998C0467844007940008744C5
:100DB00002030D111C001FE00320089000F096FBB9
:100DC00008990790084600F057FB15E0032000F053
:100DD00013FB11E003200690069900F099FB069999
:100DE0000590084600F058FB06E0072000F0B2FA34
:100DF00002E004200A90FFE70B980068012100F050
:100E000017F80B9909680490084600F055FB0B99F8
:100E100049680390084600F0DBF90B998968029055
:100E2000084600F0E7F90A99019008460CB080BD29
:100E300080B58CB00A460B900AA801700021099178
:100E40000892079000F0FCFC079801784A1E914137
:100E500001700B990429069100D9B2E00698C046AA
:100E60007844007940008744022146668C000AA835
:100E70000078E9490A68012318409A43101808606D
:100E8000FFE70AA8007800210028059107D0FFE7B6
:100E9000C4480068C00A012148400590FFE7059852
:100EA000C007002801D0FFE7EBE78DE04A48016862
:100EB0000322114301600AA80078D7490A68C007D5
:100EC000800F02239A4310180860FFE70AA80078F1
:100ED00000210028049107D0FFE7404800688009FE
:100EE000012148400490FFE70498C007002801D082
:100EF000FFE7EBE768E00AA80078C7490A68C0077F
:100F0000400F04239A4310180860FFE70AA80078EE
:100F100000210028039107D0FFE7A3480068000BD9
:100F2000012148400390FFE70398C007002801D043
:100F3000FFE7EBE748E026480168032292031143EC
:100F400001600AA80078B4490A68C007000F0823A6
:100F50009A4310180860FFE70AA8007800210028CB
:100F6000029107D0FFE71B48006880090121484033
:100F70000290FFE70298C007002801D0FFE7EBE7E7
:100F800022E00AA80078A4490A68C007C00E10230E
:100F90009A4310180860FFE70AA80078002100288B
:100FA000019107D0FFE7EA480068800C0121484022
:100FB0000190FFE70198C007002801D0FFE7EBE7A9
:100FC00002E004200990FFE709980CB080BDC046FC
:100FD0008C0D0240182000404C1D024010200040A3
:100FE000B0B58CB000200B906B4906AA18C918C286
:100FF00038C938C269490A8849880904891805919D
:1010000001A9088102900190CB4800880881CB4853
:101010000088C880CA4800888880CA4800884880FC
:101020005F48008808807C4800680006400F0490F4
:1010300004980428009000D9A0E000987844007932
:101040004000874402393C4E5200E8480068E849B5
:10105000084001A90989884203D1FFE70A980B904B
:1010600029E0E2480068E249084001A9C9888842AD
:1010700003D1FFE709980B901CE0DC480068DC49CD
:10108000084001A98988884203D1FFE708980B909E
:101090000FE0D6480068D649084001A9498888422F
:1010A00003D1FFE707980B9002E006980B90FFE74B
:1010B000FFE7FFE7FFE764E0A3480B9061E001A8CA
:1010C0000088E0490968E04A1140884204D1FFE7FE
:1010D00005A840880B9003E005A800880B90FFE767
:1010E0004FE00120C0030B904BE0A34800680321B0
:1010F0000840032837D1FFE701A80089BB490968E8
:10110000BB4A1140884203D1FFE70A980B9029E0BF
:1011100001A8C088B5490968B54A1140884203D181
:10112000FFE709980B901CE001A88088AF49096887
:10113000AF4A1140884203D1FFE708980B900FE0B7
:1011400001A84088A9490968A94A1140884203D1E9
:10115000FFE707980B9002E006980B90FFE7FFE788
:10116000FFE7FFE702E078480B90FFE70B98824922
:101170000968C905090F41430B9102E000200B905B
:10118000FFE70B98D84909684905490FC8400B90FB
:101190000B980CB0B0BDC046BC1A0000D01A0000BD
:1011A000200C10000C2000401420004080B582B0BC
:1011B00000200190FFF714FF01900198CA490968C7
:1011C000C904890FC8400190019802B080BDC04693
:1011D00080B582B0019000F033FB0198C2490A68E3
:1011E0004007400D07231B029A4310180860002097
:1011F00002B080BD80B582B0019000F021FB019863
:10120000B9490A688007C00C0323DB029A4310180F
:101210000860002002B080BD0020004010B586B0FC
:101220000490002003906946088101900090844852
:101230000088088141480088C8804148008888802B
:101240004048008848800498806803283CD1FFE724
:101250006846008965490968654A1140884205D198
:10126000FFE70498C06802282AD8FFE76846C088CC
:101270005E4909685E4A1140884205D1FFE704983B
:10128000C06802281CD8FFE768468088574909686B
:10129000574A1140884205D1FFE70498C0680328E7
:1012A0000ED8FFE76846408850490968504A114007
:1012B000884208D1FFE70498C068072803D3FFE7F6
:1012C0000620059034E00BE00498C0681E494143B5
:1012D0001E48814203D3FFE70620059028E0FFE780
:1012E0000498006824490A688007400C03235C03C3
:1012F000A24310180860049840680A684007C00EAE
:101300001C24A243101808600498C0680A680007EB
:10131000C00D0F246401A24310180860049880686F
:101320000A6818409A431018086003980590FFE770
:10133000059806B010BDC046000C1000020C10004D
:10134000040C1000060C10000048E801016CDC02DF
:101350003C20004082B00190002000900198064996
:101360000A684007800B0723DB039A4310180860C4
:10137000009802B07047C0463C20004080B582B063
:101380000A4601906846017001A80078800600288E
:101390000BD5FFE701982021884301900199684609
:1013A00002780848FFF7A0FC06E001996846027839
:1013B0000348FFF799FCFFE7002002B080BDC0465C
:1013C000202000402420004081B000900098400080
:1013D0001B49405A05490A68054B1840054B1A40FD
:1013E00010180860002001B07047C0460C20004073
:1013F000FF07000000F8FFFF82B00190002000907E
:10140000019810490A688007000D03239B029A4344
:1014100010180860009802B07047C04681B0009074
:10142000009840000649405A06490A68064B184091
:10143000064B1A4010180860002001B07047C046E3
:10144000000C100014200040FF03000000FCFFFF10
:1014500080B582B0019000F0F3F9019805490A685F
:101460004007000D07235B029A4310180860002014
:1014700002B080BD0420004082B0019000200090A6
:10148000019822490A688007800E30239A43101879
:101490000860009802B0704782B001900020009070
:1014A000019827490A688007800E30239A43101854
:1014B0000860009802B0704780B584B003900020A7
:1014C00002900398019000F0BBF9019806490A6860
:1014D0004007000EE0239A431018086000F032F82D
:1014E000029804B080BDC0460020004082B0019048
:1014F00000200090019805490A68032318409A4388
:1015000010180860009802B07047C04610200040D4
:1015100083B00290019100200090029808490A6867
:101520008007000F0C239A431018086001980A687E
:10153000032318409A4310180860009803B07047BE
:101540001820004080B5FFF74BFD0149086080BDC1
:101550000000002080B5FFF7F5FF80BD80B5C046D4
:10156000C04680BD80B5C046C04680BD80B5C0467F
:10157000C04680BD80B5C046C04680BD80B5C0466F
:10158000C04680BD80B5C046C04680BD80B5C0465F
:10159000C04680BD80B500F06BF8C046C04680BD37
:1015A00080B58EB008A81821079000F003FA00203B
:1015B000089009900D90092106900591079AFEF771
:1015C000C3FE0121069A04901046059B039119461B
:1015D000039AFEF711FF03990891069A09920D925A
:1015E0000A23029010461946079A0193FEF7ACFEB3
:1015F0000699009008460199039AFEF7FDFE0EB089
:1016000080BD80B500F044F8C046C04680BD80B5BE
:101610008EB008A81821079000F0CCF9002008909F
:1016200009900D90022106900591079AFEF78CFE15
:101630000121069A04901046059B03911946039ACE
:10164000FEF7DAFE03990891069A09920D92032398
:10165000029010461946079A0193FEF775FE069907
:10166000009008460199039AFEF7C6FE0EB080BDB1
:1016700080B501208007002100F042F8002806D044
:10168000FFE701208007002100F012F8FFE780BD8E
:1016900080B50648002100F033F8002805D0FFE7A8
:1016A0000248002100F004F8FFE780BD000100407F
:1016B00080B584B0039002910398143002990022FF
:1016C0000192FFF711FB019804B080BD80B582B094
:1016D000019000910198001D00990122FFF704FB81
:1016E000002002B080BD80B582B0019000910198C9
:1016F000001D00990122FFF7F7FA002002B080BD1B
:1017000080B584B00390029101A800210170039973
:101710001031029A009008461146FEF7F9FD009933
:101720000870087804B080BD80B588B00690059137
:1017300001200490214841680391006802900598B7
:10174000002803D1FFE70420079034E00698002129
:1017500041600598816842681143C268114300687E
:1017600001430698416005980068402805D0FFE7CE
:1017700005980068C02819D1FFE70598C068400A9D
:10178000800002A9085801A90880059802694069EB
:1017900009888840009010460099FEF7B9FC069928
:1017A000886106980421FFF791FFFFE7002004906D
:1017B00004980790FFE7079808B080BDD41A00008E
:1017C00080B5C046C04680BD80B5C046C046C04654
:1017D000C04680BD80B5C046C04680BD02481E21BF
:1017E0000160E12101607047800F004080B584B046
:1017F000039002910120019002A8007800F00EF8F9
:1018000003980E490A68C007800E20239A431018D7
:10181000086000200190019804B080BD10B581B02F
:1018200001466A4610701078044A13680F2420405D
:10183000A3431818106001B010BDC046840F0040CB
:1018400002480349016003490160704708200040D5
:101850005A5A0000A5A5000081B000900098002809
:1018600008D4FFE700981F21084001218140024869
:101870000160FFE701B0704780E200E081B00090B6
:10188000009800280CD4FFE700981F210840012190
:10189000814004480160BFF34F8FBFF36F8FFFE7B4
:1018A00001B0704780E100E081B00090009800280E
:1018B00008D4FFE700981F21084001218140024819
:1018C0000160FFE701B0704700E100E070B582B051
:1018D000019000910198002814D4FFE7019803219A
:1018E000C9430840324A8058019B9C07E40EFF25FB
:1018F000A540A843009DAD01EDB2A54028430B4093
:10190000985018E001980F21084008380322D2436C
:101910001040264BC058019CA507ED0EFF26AE4097
:10192000B043009EB601F6B2AE4030430C40083CD6
:101930001440E050FFE702B070BDC04670B582B001
:10194000019000910198002814D4FFE70198032129
:10195000C9430840164A8058019B9C07E40EFF25A6
:10196000A540A843009DAD01EDB2A54028430B4022
:10197000985018E001980F21084008380322D243FC
:1019800010400A4BC058019CA507ED0EFF26AE4043
:10199000B043009EB601F6B2AE4030430C40083C66
:1019A0001440E050FFE702B070BDC0461CED00E0FF
:1019B00000E400E083B0029001910298009000984A
:1019C000002801D1FFE70CE0FFE70198411E0191DB
:1019D000002806D0FFE70098411C0091002101700B
:1019E000F3E703B0704780B58AB0002009900890F3
:1019F000FEF716FEFEF740FE0F20FEF705FEFFF78E
:101A0000EFFAFEF79DFDFEF7D7FEFEF783FE4B20B3
:101A1000C0010790FEF7DCFE0798FEF715FF0120D6
:101A2000962106900591089AFEF7F8FB6420049031
:101A3000FEF794FD022032211922039002910192B7
:101A4000FEF7ECFB5020FEF789FD06980599089AF1
:101A5000FEF7E4FB0498FEF781FD03980299019AD2
:101A6000FEF7DCFB7D20810000900846FEF776FD46
:101A700005200299019AFEF7D1FB0098C000FEF7FD
:101A80006DFD0A200299019AFEF7C8FBFFE7FFF7F8
:101A9000A5FE7D20C000FEF761FDF8E702E008C862
:101AA000121F08C1002AFAD170477047002001E0D8
:101AB00001C1121F002AFBD17047000000093D0040
:101AC00000127A000024F4004086510100366E01B5
:101AD000008000960400000003000000001B0000CE
:101AE00000000020080000009C1A0000081B0000F5
:101AF0000800002018040000AC1A000000000000DC
:081B000000093D000000000097
:04000005000000C136
:00000001FF
