:020000040000FA
:10000000800E0020D5000000F1000000E515000082
:1000100000000000000000000000000000000000E0
:10002000000000000000000000000000F5000000DB
:100030000000000000000000F7000000FD1E0000AE
:10004000691700007117000079170000851700007C
:10005000650800004D2500006D250000C325000047
:100060001916000021160000271E0000911E000036
:10007000F5150000FD150000352500003D250000A8
:10008000452500000D160000552500005D250000E7
:100090006525000059170000292700004F180000AF
:1000A000F906000061170000152700001D27000059
:1000B00029160000051600008D0A00005D080000EA
:1000C0000348854600F006FB00480047593200000F
:1000D000800E002009480A4A002100A1814200D96F
:1000E00002440848064A026007488047074800471C
:1000F000FEE7FEE7FEE7FEE7FEE7FEE70000002082
:100100000000000008ED00E02D250000C100000007
:1001100030B50B46014600202022012409E00D469F
:10012000D5409D4205D31D469540491B2546954027
:1001300040191546521E002DF1DC30BD03460B431D
:100140009B0703D009E008C9121F08C0042AFAD28D
:1001500003E00B780370401C491C521EF9D2704713
:10016000D2B201E00270401C491EFBD2704700224F
:10017000F6E710B513460A4604461946FFF7F0FFA6
:10018000204610BD10B5044605E00B780370401CF6
:10019000002B00D0491C521EF7D2204610BD421C35
:1001A0000178401C0029FBD1801A704703460322C6
:1001B0000870000A491C521EFAD518467047000004
:1001C000F0B507460846584087B0C00F0490480075
:1001D0000E46590040084908BC1A884105D23846E5
:1001E00031461E4617460B4602465800400810434B
:1001F0004CD0300D039040055900400D490D05903D
:10020000401A0290402872DA18030121000B0905F8
:100210000843019004980092002805D001995242A9
:100220000020884100920190029840210A1A019909
:10023000009800F00FF905460C466B4607CB00F01E
:100240002AF9C0197141039A0E0D0023D7175640A1
:100250001A467A40164344D0049A002A2DD0029AB6
:10026000012A039A15DC1205C01A914101263605B0
:10027000001C7141D20F059ED20700930192029695
:100280002A46234600F027F907B0F0BD384631462C
:10029000FAE71605224A0F46B218C01AB7410121E3
:1002A0000905001C4F4100187F411146181879417B
:1002B000E20F10436D19644113E0E2076D08154326
:1002C0006408C2071443039A01261205C01A91411B
:1002D0003605001C7141CE07400830434908C0185C
:1002E00051412A46234600F0E9F8CDE7FFE704989C
:1002F00001224000C117121A00238B410498314695
:10030000C417381AA141EEE730B40124E407634072
:1003100030BC55E730B40124E407614030BC4FE7FE
:100320000000E0FFF0B51FB488B00B9909980024D5
:1003300048400999C00F490049080991C0070B9925
:100340000090490049080B9109990898A64608436E
:100350001CD00B990A98084318D009980124400032
:10036000420D4800410D099824050003000B20436D
:1003700009900B980003000B20430B9050181C4968
:100380004018002201901446104605E00020014666
:100390000DB0F0BD032801DA034600E003239C46BC
:1003A000C11A0AAE0AE05F0008ADED5B4F00F75BD3
:1003B0007D430027AA187C41491C5B1E6145F2DD84
:1003C000410004AB5A522104120C0A43240C401C75
:1003D0000828DFDB01980290009970460191009097
:1003E000059B049A0799069800F075F8D0E700007D
:1003F0000DFCFFFFF0B51FB40646002082B0054695
:100400004024019100901BE0019922460F4630469E
:1004100000F030F8049A059B801A994110D31046D9
:100420001946224600F016F8361A8F4101972246E7
:1004300001200021009F00F00DF838184D41009078
:100440002046641E0028DFDC019B009829463246C6
:1004500007B0F0BD10B5202A04DB0146203A9140D8
:10046000002010BD914020239C1A0346E34019430D
:10047000904010BD10B5202A04DB0846203AD04039
:10048000002110BD0B46D340D0402024A21A914039
:100490000843194610BD10B5202A06DBCB170846C5
:1004A000203A1041C1170B4306E00B461341D040E0
:1004B0002024A21A91400843194610BD10B5002B04
:1004C00008DA0024401C614192185B411A4301D1B3
:1004D0004008400010BDF0B51FB482B005460C00C6
:1004E00003D0084602F07CF902E002F079F92030EE
:1004F0000246009021462846FFF7ACFF049B059A70
:1005000004460F4618431143084314D018461043BD
:100510001BD0009840210A1A18460599FFF7AAFF38
:1005200005460E46009A05990498FFF793FF084385
:1005300005D0012004E02046394607B0F0BD002078
:10054000C11705430E432C43374300990E986305AA
:10055000401A7905E40A00220C43FD0A0A3002D54C
:1005600000200146E9E70105101969410C9C0D9D29
:1005700000196941FFF7A2FFDFE70000F0B50C4664
:100580005C4085B0E40FE40703944C000026640847
:1005900059009446490802460296224321D06246F9
:1005A0000A431ED06200570D4A000E032303550D67
:1005B000012402462C492405781B1B0B360B4018DE
:1005C00023432643614600901C46501AB44103D38E
:1005D0000098401C009002E0921800985B410028AF
:1005E00003DA0020014605B0F0BD00200121090515
:1005F0000746864611E064461D46141BB54106D3E6
:100600006546521BB341744607430C43A646CD07CB
:1006100040084908284392185B4105460D43EAD13A
:100620001046184313D060461946504071400843A5
:1006300006D06046101AB34106D20122002306E01C
:1006400000220123DB0702E00122D243531000986D
:1006500074460105381C6141029C039D00196941E3
:10066000FFF72CFFBFE70000FD0300004A0009036D
:100670000123090B1B0519430A4B10B5520D9A4271
:1006800002DA0020014610BD064B34339A4203DCE7
:100690009A1AFFF7EFFE10BD034BD218FFF7DAFEF0
:1006A00010BD0000FF030000CDFBFFFF10B50029C7
:1006B00004DB0124E40740428C412146002B04DB8B
:1006C0001C460123DB075242A341994200D19042CC
:1006D00010BD0000064C0125064E05E0E36807CC7E
:1006E0002B430C3C98471034B442F7D3FFF7ECFC93
:1006F0004C3B00006C3B000010B5C046C046C046F5
:10070000C04610BD1CB504460621684602F071FDC6
:1007100000216846017041708170C17001714171A2
:100720006A460821402000F02FFA002208214020CC
:1007300000F072FA002C04D00821402000F076FA74
:1007400003E00821402000F0D5F91CBD70B5044637
:1007500000250FE00821402000F068FAF02000F0AA
:100760007DFB0821402000F0C5F9F02000F076FB69
:10077000681C85B26000A842ECDC70BDF8B5044688
:100780000D4616460020FFF7BDFF002707E028466C
:10079000FFF7DCFF304600F055FB781C87B2A7421C
:1007A000F5DBF8BD10B5FF2000F017F80446552C16
:1007B00001D1002010BD5521FF2000F030F8FF20AE
:1007C00000F00BF80446552C01D10020F2E701207F
:1007D000F0E710B500F092FB10BD70B5044600259F
:1007E000FF2C01DD012070BD00F03CFCA02000F0DA
:1007F00003FC00F079FCE0B200F0FEFB00F074FCBA
:1008000000F030FCA12000F0F7FB00F06DFC0020B0
:1008100000F0C0FB054600F045FC2846E3E770B554
:1008200004460D46FF2C01DD012070BD00F01AFCCE
:10083000A02000F0E1FB00F057FCE0B200F0DCFB90
:1008400000F052FC284600F0D7FB00F04DFC00F011
:1008500029FC0A2000F0F6FA0020E6E710B5C046B1
:10086000C04610BD10B5C046C04610BD1CB506211F
:10087000684602F0BEFC00216846017041706A467D
:100880000C21402000F080F900220C21402000F0D3
:10089000C3F90C21402000F0C9F91CBD1CB506218C
:1008A000684602F0A6FC0021684601704170817024
:1008B000C170017141716A460821002000F064F99D
:1008C0000821002000F0B2F91CBD1CB506216846C5
:1008D00002F08FFC00216846017041708170C17088
:1008E000017141716A46084600F04EF90021084640
:1008F00000F000F91CBD1CB50621684602F079FC29
:1009000000216846017041708170C17001714171B0
:100910006A460321402000F037F90321402000F00F
:10092000E9F81CBD1CB50621684602F062FC0021F6
:100930006846017041706A460F21002000F024F9DA
:1009400000220F21104600F067F90F21002000F06F
:100950006DF91CBD1CB50621684602F04AFC002159
:100960006846017041708170C170017141716A46C1
:100970000C21002000F008F90C21002000F056F9AD
:100980001CBD000070B504460E46154620460028E2
:1009900005DBC206D20E012191401A4A116000BF48
:1009A0003146204601F07EFF012D0ED12046002861
:1009B00009DB00BF00BFC206D20E01219140124ADE
:1009C000116000BF00BF00BF1BE02046002816DBFF
:1009D000C206D20E012191400B4A8032116000BF45
:1009E00000BF00BFBFF34F8F00BF00BF00BF00BFFD
:1009F00000BF00BFBFF36F8F00BF00BF00BF00BFCD
:100A000000BF70BD80E200E000E100E010B5FFF73C
:100A1000E0FEFFF7C7FE002803D00120034908705D
:100A200002E000200149087010BD00000000002015
:100A300001480078704700000000002010B500F069
:100A400011FE00F067FE002412E000F037FEC0B295
:100A5000122808D000F032FEC0B2132803D00120C3
:100A60000649087003E000200449087002E0641C95
:100A7000032CEADB00BF00F0DBFD10BD010000200D
:100A800001480078704700000100002010B5C04602
:100A9000C046C046C04610BD10B501460020084AF9
:100AA000084BDA62084ADA621A46126A0C239A4341
:100AB0008B000C2423401A43024B1A6210BD000025
:100AC0005A5A000000000240A5A500000246106826
:100AD000C840C007C00F704770B504460D460449B2
:100AE00060180022294601F0D7F9002070BD0000EF
:100AF000100E024070B504460D46044960180122EC
:100B0000294601F0C9F9002070BD0000140D024013
:100B1000F8B504460E4615460548A90040180719C1
:100B200000223146384601F0B7F90020F8BD000038
:100B3000300D0240F8B504460E4615460548A9009A
:100B40004018071901223146384601F0A5F9002066
:100B5000F8BD0000300D024070B504460D46034953
:100B600060182946FFF7B2FF70BD0000040D024077
:100B700070B504460D46034960182946FFF7A6FFE5
:100B800070BD0000000E024070B504460E461546CA
:100B90001E4960180022314601F07EF900201C49F0
:100BA0006118B20088502A7818490C39601831460B
:100BB00001F072F96A78154910316018314601F078
:100BC0006BF9AA78114914316018314601F064F9C3
:100BD000EA780E4918316018314601F05DF92A793A
:100BE0000A4920316018314601F056F909488068F9
:100BF0000121C90388436979C9030122D203114045
:100C0000084304498860002070BD00000C0D0240BC
:100C1000000C0240000F024010B5034602481818AD
:100C20008C000251002010BD000C024070B504463B
:100C30000D46044960180122294601F02DF90020D3
:100C400070BD0000100D02400148006870470000B0
:100C50001000002003480068401C02490860002082
:100C6000704700001000002000B5FFF7EDFF1C49A1
:100C70000860084600681B490968884215D9184869
:100C8000006818490968401A7D21C90088420CD3C0
:100C900015480068401C14490860124800687D210E
:100CA000C90040180F49086018E00E48006800218C
:100CB000C943081A0A4909684018401C7D21C90027
:100CC00088420BD308480068401C07490860054863
:100CD00000687D21C900401802490860002000BD5D
:100CE0001C000020180000201400002010B500F0A7
:100CF000B3FD00280BD0642216490120FFF73EFD0A
:100D000015A001F02FF814A001F02CF810BDFFF78A
:100D10008FFE00280BD064220E490120FFF72EFD24
:100D200013A001F01FF812A001F01CF8EEE7FFF786
:100D3000A7FE00280BD0642206490120FFF71EFD04
:100D400011A001F00FF810A001F00CF8DEE700BFD1
:100D5000DCE70000B80B0000426F6F743A20534983
:100D600034343338204572726F7221212100000023
:100D7000426F6F743A20454550524F4D2045727274
:100D80006F72212121000000426F6F743A204E4F94
:100D900052464C48204572726F722121210000009A
:100DA00010B5FFF763FDFFF7BDFDFFF777FDFFF718
:100DB000A2FDFFF78AFDFFF7CDFD08210020FFF718
:100DC00035FF03214020FFF795FE00210846FFF77D
:100DD00091FE0C210020FFF729FF10BDF0B503465E
:100DE00000220F4E75690F4E36685E4364277E43BE
:100DF00034460B4EB1690FE0094EB06988420BD002
:100E0000884202D20E1AB21802E02E1A7618B218D0
:100E10000146A24200D300E0EEE700BFF0BD0000B3
:100E200000E000E00400002010B50446034920461D
:100E3000FFF76EF90249086010BD000040420F0044
:100E40000400002030B50446002503E00A20FFF727
:100E5000C5FF6D1CA542F9D330BD000070B5034637
:100E600000220E4E75690E4E36685E4334460B4EB8
:100E7000B1690FE0094EB06988420BD0884202D2B6
:100E80000E1AB21802E02E1A7618B2180146A242C3
:100E900000D300E0EEE700BF70BD000000E000E01E
:100EA00004000020F8B504460D4616466846047056
:100EB0004570867001F02CF8F8BD000010B50621D1
:100EC0004020FFF717FE002207210B4800F0E4FF47
:100ED00007214020FFF70EFE0220FFF7BFFF06218B
:100EE0004020FFF7A3FE0220FFF7B8FF06214020B5
:100EF000FFF700FE10BD0000400D02401CB50621AA
:100F0000684602F076F900216846017041700121BF
:100F100081700021C170012101716A4606214020C3
:100F2000FFF732FE6A4607214020FFF72DFE002220
:100F300006214020FFF770FE002207214020FFF726
:100F40006BFE06214020FFF771FE07214020FFF7CE
:100F50006DFE1CBD10B506214020FFF7CBFD002221
:100F600007210B4800F098FF07214020FFF75EFEA5
:100F70000220FFF773FF06214020FFF757FE0220F3
:100F8000FFF76CFF06214020FFF7B4FD10BD000005
:100F9000400D024070B50546002401220721154886
:100FA00000F07AFF002619E006214020FFF7A2FD9D
:100FB0000220FFF753FF06214020FFF737FE6006AF
:100FC000040E07214020FFF7C7FD002801D0601C58
:100FD000C4B20120FFF742FF701CC6B2082EE3DB4B
:100FE000002D02D1FFF7B6FF01E0FFF767FF2046B3
:100FF00070BD0000400D024070B50446002207217C
:10100000174800F049FF06214020FFF773FD002537
:1010100022E080202040C011002804D00721402079
:10102000FFF704FE03E007214020FFF763FD6006A1
:10103000040E0220FFF712FF06214020FFF7F6FD05
:101040000220FFF70BFF06214020FFF753FD02208F
:10105000FFF704FF681CC5B2082DDADB70BD000085
:10106000400D024010B5002207210D4800F014FF8A
:1010700007214020FFF7DAFD06214020FFF7D6FDCB
:101080000420FFF7EBFE07214020FFF733FD04208B
:10109000FFF7E4FE06214020FFF72CFD10BD000005
:1010A000400D024010B5002207210E4800F0F4FE6A
:1010B00007214020FFF71EFD06214020FFF71AFD03
:1010C0000420FFF7CBFE06214020FFF7AFFD0220F2
:1010D000FFF7C4FE07214020FFF7A8FD0420FFF71B
:1010E000BDFE10BD400D024010B5002401220721B5
:1010F000104800F0D1FE07214020FFF797FD00BF08
:1011000006214020FFF792FD00BF07E0601CC4B23B
:10111000FA2C03DDFFF7C6FF012010BD0721402098
:10112000FFF71AFD0028F1D106214020FFF7E2FC6D
:101130000020F2E7400D024010B504462146002091
:1011400001F0FEFA01F0F4FA10BD00000848094968
:10115000C86008494031C86006498031C860054907
:10116000C031C8600449C86003494031C860704755
:10117000FFFF0000000D0240001D024010B500F00E
:1011800045FE10BD10B50121182001F013F9012111
:101190001C2001F00FF901210F2001F00BF90121B2
:1011A0001F2001F007F90121002001F003F90121BE
:1011B000084601F0FFF80021042001F0FBF80021AF
:1011C000052001F0F7F80121062001F0F3F80121D4
:1011D000072001F0EFF80021102001F0EBF80021CA
:1011E0001B2001F0E7F800211A2001F0E3F810BD00
:1011F0001CB5112001F020F90121022000F0BEFEF3
:10120000022001F04DF9032001F0F0F80121002047
:1012100000F0B4FE01216846017103214171817122
:101220000421C17101A801F029F8072001F0B0F8EC
:101230000121042000F0A2FE0120FFF72DFC042173
:101240006846017000214170817000F061FE00214C
:10125000022000F093FE1CBD1CB50621684601F07B
:10126000C8FFFFF71BFBFFF746FBFFF72EFBFFF75F
:1012700071FB08210020FFF7D9FC03214020FFF774
:1012800039FC00210846FFF735FC0C210020FFF750
:10129000CDFC00216846017041708170C170017100
:1012A0006A4606214020FFF76FFC6A46072140206E
:1012B000FFF76AFC002206214020FFF7ADFC002268
:1012C00007214020FFF7A8FC00216846017041700B
:1012D0008170C17001716A4605210020FFF754FC3E
:1012E0006A4607210020FFF74FFC6A4606210020CE
:1012F000FFF74AFC002205211046FFF78DFC002273
:1013000007211046FFF788FC002206211046FFF750
:1013100083FC00216846017041708170C1700171C9
:101320006A460C214020FFF72FFC00220C214020B0
:10133000FFF772FC00216846017041708170C17036
:1013400001716A460F210020FFF71EFC00220F21C9
:101350001046FFF761FC6A4604214020FFF714FCA9
:10136000002204214020FFF757FC6A460A21402052
:10137000FFF70AFC00220A214020FFF74DFC06215E
:101380004020FFF7B7FB07214020FFF7B3FB052103
:101390000020FFF7AFFB07210020FFF7ABFB062182
:1013A0000020FFF7A7FB0C214020FFF7A3FB0F2134
:1013B0000020FFF79FFB04214020FFF79BFB0A2141
:1013C0004020FFF797FB0248FFF73CFD1CBD0000E3
:1013D000B80B000008B500F02AFD0421684601F0B2
:1013E00008FF102168460170012141700021C17081
:1013F00081706946014800F067FD08BD00080040A3
:101400007CB504460D4600262946684600F06CF877
:1014100005E0684600F071F8002800D005E00421DE
:10142000104800F048FD0028F3D000BF21460D48C9
:1014300000F05EFD1420FFF711FD05E0684600F0A6
:101440005CF8002800D005E00221064800F033FDDA
:101450000028F3D000BF034800F046FD06463046A2
:101460007CBD0000000800407CB504460D462946BE
:10147000684600F039F805E0684600F03EF80028BC
:1014800000D005E00421064800F015FD0028F3D047
:1014900000BF2146024800F02BFD20467CBD000025
:1014A0000008004010B57D21C9000C480068FEF717
:1014B0002FFE0446601E0A49884200D90CE0601ED7
:1014C000084948610321081F01F0B0F900200549CF
:1014D00088610720086100BF10BD00000C000020DB
:1014E000FFFFFF0000E000E070B504460D462560F8
:1014F000FFF7AAFB4019606070BDF8B5044621688B
:101500006068461AFFF7A0FB0546B54201D9AF1B3C
:1015100004E00020C043801B4019471C2068B842EB
:1015200001D20120F8BD0020FCE71FB5044601F000
:1015300023F81021684601F05CFEC0216846017066
:10154000002141804170039401214902818000F013
:101550005DFE029069460120800701F0A5F8012197
:10156000880701F075F800210120800701F070F86C
:1015700000210120800701F080F801221146062099
:10158000FFF700FA1FBD00001FB5044601F01FF869
:101590001021684601F02DFEC0216846017000212F
:1015A00041804170039401214902818000F02EFEA8
:1015B000029069460A4801F077F80121084801F0D5
:1015C00047F80021064801F043F80021044801F0E3
:1015D00054F8012211460720FFF7D4F91FBD00007F
:1015E0000001004008B50020009000BF00980028CE
:1015F000FCD008BD10B5C046C04610BD10B5C046F1
:10160000C04610BD10B5C046C04610BD10B5C0469E
:10161000C046C046C04610BD10B5C046C04610BD4D
:1016200010B5C046C04610BD10B5C046C04610BD7E
:1016300010B50C214020FFF75DFA0021084800F0AA
:101640005BFCB92000F080F80121054800F054FC53
:101650000C214020FFF7EAFA0520FFF7FFFB10BD41
:101660000008004010B5FFF7B5FE00F001F810BD0E
:101670001CB50621684601F0BCFD002168460170DA
:1016800041706A460C214020FFF77EFA00220C21AF
:101690004020FFF7C1FA0121034800F02DFC0C2186
:1016A0004020FFF7C3FA1CBD0008004010B50446F7
:1016B000FF21F5312046FFF7A3FE10BD10B5002431
:1016C0000C214020FFF716FA0021114800F014FC0D
:1016D000902000F039F8002000F036F8002000F0EB
:1016E00033F8002000F030F8FF20FFF7DFFF0002A2
:1016F0000443FF20FFF7DAFF04430121044800F010
:10170000FBFB0C214020FFF791FA204610BD0000A2
:101710000008004010B50C214020FFF7EBF9002134
:10172000084800F0E9FBAB2000F00EF80121054865
:1017300000F0E2FB0C214020FFF778FA0A20FFF7C7
:101740008DFB10BD0008004010B50446FF21F531A7
:101750002046FFF789FE10BD10B5C046C04610BD3B
:1017600010B5C046C04610BD10B500F011F810BD50
:1017700010B500F00EF810BD10B500F018F800F02C
:1017800018F810BD10B500F013F800F013F810BDF4
:10179000704710B50A214020FFF7EAF9002805D06C
:1017A0000A214020FFF798F900F05CF810BD70475F
:1017B0007047704770471CB50621684601F019FD57
:1017C0000121684601700021417081700121C170C2
:1017D0000021017141716A460B210020FFF7D4F905
:1017E0001CBD10B5FFF78AFB80210A2000F017F816
:1017F00001210B2000F013F84021202000F00FF809
:101800000121212000F00BF8DC21092000F007F86D
:1018100000210A2000F003F8FFF7CDFF10BD70B5DE
:1018200005460C46FFF71EFC1A20FFF7E5FBFFF705
:101830005BFC2846FFF7E0FBFFF756FC2046FFF76E
:10184000DBFBFFF751FCFFF72DFC002070BD10B54E
:1018500000F0E8FA10BD0000014800787047000071
:101860002C000020F8B50026464C01F05DFE054630
:10187000202D02D100F094F983E0022D02D100F076
:101880006BF97EE0102D46D13F480078401C3F495F
:101890000978401AC6B23E48007800280CD13A496F
:1018A000012001F097FF611C3748007801F092FF9A
:1018B0003548007820700AE0344800782118304616
:1018C00001F088FF31480078801930490870002005
:1018D000304908702D4908702D490870FF200023F9
:1018E000112202210090122001F094FF00212A48C9
:1018F000007801F068FE204602F046F8002802D089
:10190000204800F01FFAFF212046FEF730FC01209E
:101910002049087035E0012D33D11D48007800289A
:1019200009D12146012001F055FF207816490870A1
:1019300000201649087014480078401C13490978A3
:10194000401AC6B2302E1CD311480078002804D1AA
:10195000611C2F2001F03EFF05E00C4800782118A3
:10196000302001F037FF094800783030074908700F
:1019700007480078002804D105480078401C044935
:101980000870F8BD54050020370000203800002002
:1019900039000020360000202D0000201CB500F08A
:1019A0003FF801F003FE01F0DDFE174840681749DB
:1019B000884203D00120164908701CBD002014493C
:1019C000087014496846FFF78FFD0AE001F0EEFD4C
:1019D0006846FFF792FD002803D001200C490870EB
:1019E000EBE70D4801F040FE0028EFD10022114640
:1019F000104601F089FE00210848007801F0E3FD5F
:101A000000F01FF800BFD8E7580600203844000057
:101A10002C00002010270000E03900002D000020DD
:101A200010B500F015F800F02AF900F01CF900F0EC
:101A3000E7F810BD10B503220A214020FFF768F82F
:101A400010BD10B503220A214020FFF773F810BD26
:101A50001CB50621684601F0CCFB002168460170E8
:101A600041706A4604214020FFF78EF800220421CD
:101A70004020FFF7D1F800216846017041706A46A6
:101A80000F210020FFF780F800220F211046FFF7FA
:101A9000C3F8012168460170002141700121817065
:101AA0000021C1700171012141716A460A21402063
:101AB000FFF76AF800220A214020FFF7ADF8012263
:101AC00003211046FEF75EFFFFF7B4FF1CBD0000C8
:101AD00070B504460D46194E194804600120194995
:101AE0000870681C184908700020184908701648CA
:101AF00000780978884213DD13480078134B1B786F
:101B0000C01AC2B20E480068104B1B78C1181048AA
:101B1000007801F06EFD0D49097840180B490870F6
:101B20000C480078002808D000BF0648007801283B
:101B300003D13046761E0028F7D170BD80380100F1
:101B40003000002035000020340000202E0000204E
:101B50002D0000203600002010B50D4800780D49FA
:101B60000978884213DD0A4800780A4B1B78C01AAE
:101B7000C2B209480068074B1B78C11807480078B3
:101B800001F037FD0349097840180249087010BD7B
:101B9000340000202E000020300000202D00002006
:101BA00008B50B480078002811D0002009490870BA
:101BB00007490870FF200023112202210090122003
:101BC00001F028FE00210448007801F0FCFC08BD6B
:101BD000350000202E0000202D00002010B5FFF75A
:101BE000F9FB10BD10B5044664212046FFF708FC40
:101BF00010BD10B5044664212046FFF735FC10BD2A
:101C000010B5FFF7EBFF10BD10B504462046FFF7F7
:101C1000E9FF10BD70B505460C4604E0FF20FFF754
:101C2000E1FF2070641C2846691ECDB20028F5D162
:101C300070BD10B504462046FFF7DBFF10BD70B540
:101C400005460C4603E02078641CFFF7D2FF2846C7
:101C5000691ECDB20028F6D170BD10B50421402018
:101C6000FEF7E4FF10BD10B504214020FEF742FF4F
:101C700010BD10B50A214020FEF76EFF10BD10B553
:101C80000F210020FEF7D2FF10BD10B50F2100205C
:101C9000FEF730FF10BDFFB581B00B9E0A9C0025FA
:101CA00000BF207830460930207000BF00BF607848
:101CB000C008C000401D607000BF00BF6078E02118
:101CC00088432030607000BF00BFA078F0218843B7
:101CD000029909010843A07000BF0398002804D0AE
:101CE00000BFE0780399E17000BF002E05D03246B6
:101CF000204608300199FEF721FA042204A9201D8C
:101D0000FEF71CFA012704E0E05D401985B2781C5B
:101D1000C7B230460830B842F6DC2846E917090E4B
:101D2000091809040A0E314608316254E917090EF0
:101D3000091809120902691ACAB2314609316254F6
:101D400005B0F0BD10B50446204601F0C7FD10BD3A
:101D500070B504460D4629462046FFF7B9FE00201F
:101D600070BD00000FB408B5FF2101310948FEF72E
:101D7000FEF903A800900748009A029900F01EFDA2
:101D800000200090034800F007F801B008BC04B040
:101D90001847000054040020FEB50646194C304692
:101DA000FEF7FDF9C5B21E2D00DD1E25FFF754FD1F
:101DB000002800D0FEBDFFF733FE21460020C043BF
:101DC000FEF7F4F9012020713A2060712A4631466D
:101DD000A01DFEF7D7F901F0CDFD0746A81DC0B242
:101DE00008492039084B3A460091019005212046C8
:101DF000FFF751FF034820380178FFF7A9FF00BF24
:101E0000D8E700007402002001100181002004497D
:101E10008862401E88620020C862401EC862704707
:101E200000200040704710B5C046C04610BD1CB52C
:101E30000621684601F0DDF9002168460170417015
:101E40006A4605210020FEF79FFE012205210020A1
:101E5000FEF7E2FE00216846017041706A460721E4
:101E60000020FEF791FE012207210020FEF7D4FE9C
:101E7000012168460170002141706A460621002058
:101E8000FEF782FE012206210020FEF7C5FE1CBDE2
:101E900010B5C046C04610BD10B5012A05D1036873
:101EA00001248C402343036004E0036801248C4038
:101EB000A343036010BD024690680840002801D08B
:101EC000012070470020FCE70246002010600878DF
:101ED0004B7818438B781843CB781843402318432A
:101EE00010600020906070470146C868C0B270471B
:101EF0000246D160002070474160704710B500F085
:101F000001F810BD10B5FEF7A5FEFEF7ADFE10BD41
:101F100070B5044600252078030000F078FC050425
:101F2000050C10181C0018E0032000F0CFFA032065
:101F300000F096FA11E0032000F06CFA0DE00321A6
:101F4000084600F0D1FA032000F09AFA05E00720D5
:101F500000F01EFA01E0042500BF00BF2078012137
:101F600000F00CF8207800F09BFA607800F05EF941
:101F7000A07800F06FF9284670BD000070B50546E6
:101F80000C46002600F0FEFB002C01D0012000E0F2
:101F9000002004462B0000F03AFC05041731456090
:101FA00074003A48006840084000E107C90F084340
:101FB0003649086000BF002C05D03448C0680005D1
:101FC000C00F0028F7D05EE03148C0680321084305
:101FD0002F49C8602D480068022188436100022211
:101FE000114008432949086000BF002C05D027484C
:101FF00000694006C00F0028F7D044E0234800687D
:1020000004218843A1000422114008431F490860AD
:1020100000BF002C05D01D484069C004C00F002837
:10202000F7D030E01B48C0680321890308431949F1
:10203000C8601648006808218843E1000822114062
:1020400008431249086000BF002C05D00F48806982
:102050004006C00F0028F7D015E00C48006810219A
:10206000884321011022114008430849086000BF3D
:10207000002C05D00548C06B4003C00F0028F7D0E6
:1020800001E0042600BF00BF304670BD00200040C4
:10209000401D0240800D024030B589B0002414225A
:1020A000564904A8FEF74AF85448143000680390D3
:1020B00000200090019002905148018868460181FB
:1020C0004F4841886846C1804D4881886846818074
:1020D0004B48C1886846418049482030018868469D
:1020E0000180484800680006450F2B0000F08FFB78
:1020F00005042E303E4178004248C0684005400D3E
:1021000069460989884201D1089C1EE03D48C068A3
:102110004005400D6946C988884201D1079C14E0FA
:102120003848C0684005400D69468988884201D119
:10213000069C0AE03348C0684005400D694649885E
:10214000884201D1059C00E0049C4BE02E4C49E004
:10215000684600882B4949698905890D884202D162
:102160006846C48901E0684684893BE00124E403B1
:1021700038E02448C06B8007800F032829D16846C7
:1021800000892049C9684905490D884201D1089C48
:1021900020E06846C0881B49C9684905490D884246
:1021A00001D1079C16E0684680881649C968490530
:1021B000490D884201D1069C0CE0684640881149CF
:1021C000C9684905490D884201D1059C02E0049C7B
:1021D00000E00D4C0B48C06BC005000F444301E00C
:1021E000002400BF00BF074800684005410F20469B
:1021F000C8400446204609B030BD0000C039000088
:10220000000C1000002000400048E80110B5002438
:10221000FFF742FF044604480068C004810F2046CF
:10222000C8400446204610BD0020004010B50446BA
:1022300000F0A8FA06480068072109028843210235
:10224000072212021140084301490860002010BD16
:102250000020004010B5044600F094FA06480068DB
:102260000321C9028843E1020322D202114008433C
:1022700001490860002010BD002000401EB5014645
:10228000002200200090019002903D48038868469B
:1022900003813B4843886846C38039488388684641
:1022A00083803748C38868464380887803282DD1C7
:1022B00068460089334BDB685B055B0D984202D1B1
:1022C000C878022820DC6846C0882E4BDB685B0596
:1022D0005B0D984202D1C878022815DC68468088D8
:1022E000284BDB685B055B0D984202D1C878032858
:1022F0000ADC68464088234BDB685B055B0D98422F
:102300000CD1C878062809DD06201EBDC8781E4BF2
:1023100058431E4B984201D90620F6E71948C06B76
:1023200003235B0398430B785B030324640323407C
:102330001843144BD8631846C06B1C2398434B7842
:102340009B001C24234018430E4BD8631846C06BD7
:10235000FF23E1339843CB785B01FF24E134234032
:102360001843084BD8631846C06B800880008B78F0
:102370009B079B0F1843034BD8631046C5E700002B
:10238000000C1000002000400048E801006CDC0256
:1023900010B501460020064AD26B0723DB039A439F
:1023A000CB030724E40323401A43014BDA6310BD37
:1023B0000020004070B504460D4620202040002833
:1023C00009D020212046884304462A462146064853
:1023D000FFF762FD05E02A4621460348001FFFF78C
:1023E0005BFD002070BD00002420004001464A0033
:1023F000064BD21812885005400D054AD268D20A01
:10240000D2020243024BDA6000207047000C100039
:102410000020004010B501460020064A52690323FF
:102420009B029A438B020324A40223401A43014BCC
:102430005A6110BD0020004001464A00064BD218E8
:1024400012889005800D054A5269920A9202024351
:10245000024B5A6100207047000C10000020004021
:1024600010B501460020054A126930239A430B013A
:10247000302423401A43014B1A6110BD0020004054
:1024800010B501460020054A926930239A430B019A
:10249000302423401A43014B9A6110BD00200040B4
:1024A00070B504460025264600F06CF90648006821
:1024B000E02188437101E02211400843024908608D
:1024C00000F02CF8284670BD002000400146002096
:1024D000044A1269920892008B079B0F1A43014B22
:1024E0001A6170470020004030B5024600200A4BB8
:1024F0009B690C24A34394000C252C402343064CD9
:10250000A36123469B699B089B008C07A40F234370
:10251000014CA36130BD00000020004010B5FFF762
:10252000BBFD0149086010BD0C00002010B5FFF78D
:10253000F5FF10BD10B5C046C04610BD10B5C04671
:10254000C04610BD10B5C046C04610BD10B5C0464F
:10255000C04610BD10B5C046C04610BD10B5C0463F
:10256000C04610BD10B5C046C04610BD10B500F045
:1025700053F8C046C04610BD1CB50621684600F0A1
:1025800038FE002168460170417041716A46092198
:102590000020FEF7F9FA012209210020FEF73CFB9A
:1025A0000121684601700021417041716A460A218B
:1025B0000020FEF7E9FA01220A210020FEF72CFB99
:1025C0001CBD10B500F036F8C046C04610BD1CB5A5
:1025D0000621684600F00DFE00216846017041703A
:1025E00041716A4602210020FEF7CEFA0122022143
:1025F0000020FEF711FB01216846017000214170A7
:1026000041716A4603210020FEF7BEFA0122032130
:102610000020FEF701FB1CBD10B500210120800742
:1026200000F035F8002804D000210120800700F0D8
:102630000FF810BD10B50021044800F028F800285C
:1026400003D00021014800F003F810BD0001004054
:1026500070B504460D460022294620461430FFF787
:102660001BFC002070BD70B504460D4601222946B2
:10267000201DFFF711FC002070BD70B504460D460B
:1026800001222946201DFFF707FC002070BD70B510
:1026900004460D460026294620461030FEF716FA5D
:1026A0000646304670BD0000FEB505460C460127C3
:1026B000174903C901910090002C01D10420FEBDEF
:1026C00000206860608861780843A1880843217809
:1026D000084368602078402802D02078C02813D1B1
:1026E000A088C117C90D0918491289006A46515AB4
:1026F0008EB2E268B2401146A068FDF709FDA861FC
:1027000004212846FFF7AFFF00273846D7E700002F
:10271000D839000010B5C046C04610BD10B5C0463F
:10272000C046C046C04610BD10B5C046C04610BD2C
:102730001E2002490860E12008607047800F0040B9
:1027400030B503460C460125204600F00FF8064838
:102750004068202188435901202211400843024942
:1027600048600025284630BD800F00400449496874
:10277000090909010207120F1143014A516070470C
:10278000800F004002480349886003488860704712
:102790005A5A000000200040A5A500000FB410B553
:1027A00003A9044B044A029800F082F910BC08BC4B
:1027B00004B01847153200000800002037B5144651
:1027C0000846064B6A46214600F072F904466946FF
:1027D000002000F009FD20463EBD0000E931000068
:1027E0002021020C01D010211046020A01D010460F
:1027F0000839020901D01046091F820801D010468D
:10280000891E420801D0881E7047081A704730B4EC
:102810007446641E2578641CAB4204D3635D5B0080
:10282000E31830BC18471D46F8E7000010B5002833
:1028300019DB1A4A03231B02D21883089B00D258C3
:102840008307DC0EFF23A3409A438B071B0E8407EC
:10285000E40EA3401A43114B032424021B198408DD
:10286000A4001A5118E00E4A03071B0F083B9B08EF
:102870009B00D2588307DC0EFF23A3409A438B07AB
:102880001B0E8407E40EA3401A43054B0407240FD4
:10289000083CA408A4001A5110BD000000E100E0AB
:1028A0001CED00E010B5002819DB1A4A03231B02B7
:1028B000D21883089B00D2588307DC0EFF23A34065
:1028C0009A438B071B0E8407E40EA3401A43114B57
:1028D000032424021B198408A4001A5118E00E4A8C
:1028E00003071B0F083B9B089B00D2588307DC0E95
:1028F000FF23A3409A438B071B0E8407E40EA340DB
:102900001A43054B0407240F083CA408A4001A51DD
:1029100010BD000000E100E01CED00E002E008C88E
:10292000121F08C1002AFAD170477047002001E049
:1029300001C1121F002AFBD170470000F0B51FB47F
:1029400086B00998089A030D0021024314D051481B
:10295000514A1818504305141198012810981AD09C
:10296000281A401C00264D4F4D49009601910490B5
:10297000002812DA444211E01198012449A30128E9
:1029800001D11098C1430698119A84600360C26017
:1029900041600BB0F0BD4042E4E704462105002051
:1029A0003F4A001C51410391029012E0E00707D01A
:1029B00032463B4601990098FDF7B4FC0191009026
:1029C00032463B4610461946FDF7ACFC06460F461C
:1029D0006410002CEAD10498039B0028029A0999FC
:1029E000089806DAFDF79EFC019B009AFDF79AFC19
:1029F00005E0FDF7C3FD019B009AFDF7BFFD04460E
:102A00000E460022284BFDF751FE03D80020C0439C
:102A1000014607E00022254B20463146FDF7D0FB5A
:102A2000FDF724FE102409E0002C0ADB0A22002313
:102A3000FDF7E0FC079B30321A55641E02460A433C
:102A4000F2D11122641C079B121B1C19119B012B34
:102A500003D0012308430ED10AE0084304D011201B
:102A600010900020119077E71098151A6D1E0BE05A
:102A70001098824202DD00236D1C03E0824201DADD
:102A800000236D1E002BEED0069811998260C16064
:102A900030C07EE701FCFFFF104D00000000144035
:102AA0000000F03F300000000000F0430000E03F75
:102AB000FFB597B00646002518E2252877D10024F7
:102AC0002746FD49049400E00443761C3278012037
:102AD000203A90400842F7D130782A280ED00222BE
:102AE000307801463039092916D804990A23594308
:102AF000303940181443761C0490F1E7189802C846
:102B000004911890002904DA01204003044348424C
:102B1000049002200443761C30782E2814D104201F
:102B200004437078761C2A2809D11898761C80C82E
:102B3000189009E00A214F43303FC719761C3078BE
:102B4000014630390929F5D930786C2810D006DCD7
:102B50004C281AD068280ED06A2817D104E07428AF
:102B600013D07A2812D110E00120400504430CE074
:102B70000121090501E0032109050C437178814217
:102B800003D1012000052418761C761C30781190A2
:102B900066280BD013DC58287DD009DC00287BD0B8
:102BA0004528F6D04628F4D047281AD1A5E118E0E8
:102BB000632835D0642870D0652812D19DE1702833
:102BC0006CD008DC6728F1D069287BD06E280DD046
:102BD0006F2806D1BAE073282ED0752871D07828D6
:102BE00059D01A9A199990476D1C7EE16002400FE6
:102BF000022809D003280DD00428189801680DD0A8
:102C00000D60001D189070E11898EA1701680D60BA
:102C10004A60F6E7189801680D80F2E70D70F0E75A
:102C200018986A4601781172001D189000205072A1
:102C300002A80090012005E0189802C81890002012
:102C40000091C04361070DD5002101E00199491CA5
:102C50000191B94212DA8142F8DB009A515C0029F5
:102C6000F4D10BE0002101E00199491C019181425E
:102C7000FADB019A0099895C0029F5D10199049841
:102C80001A9B471A21463846199A00F097FA01997B
:102C9000401945180BE04FE02CE113E04EE000989E
:102CA00000990078491C00911A9A19999047019847
:102CB000401E0190401CF2D1214638461A9B199AB9
:102CC00010E137E00A200021009001916002410FDD
:102CD000022907D0189A01CA1892C21794460329EC
:102CE00008D00AE01898C01DC108C90005C918918C
:102CF000944607E000B2C2179446042902D140B2BC
:102D0000C1178C4600226146944506DA0A46002126
:102D1000404291418C462D2102E0210504D52B2112
:102D20006A461173012103E0E10701D02021F7E792
:102D3000029155E00A200AE0102008E010200090DF
:102D40000021042004430191082703E0082000210A
:102D5000019100906002410F022907D0189A01CA20
:102D6000189200229446032908D008E01898C01D44
:102D7000C108C90005C91891944603E080B204292E
:102D800000D1C0B200210291210729D511997029E3
:102D900006D0009A1021019B4A401A4305D00EE04C
:102DA00040216A461173012108E06146014306D0C3
:102DB00030216A4611731199517302210291009AD0
:102DC0000821019B4A401A430AD16146014301D1BF
:102DD000610705D530216A46117301217F1E0291DA
:102DE0001199582904D035A10E910DA90D910DE02E
:102DF00037A1F9E76146019B009AFDF7FBFA0E9BAC
:102E00008C469B5C0D9A521E0D92137061460143D5
:102E1000F0D10D9805A9081A20300190600703D55C
:102E200001200004844300E001270198874201DD6E
:102E3000381A00E000200199009041180298091802
:102E40000498401A0490E00306D421461A9B199A6C
:102E5000049800F0B3F94519002706E003A81A9A70
:102E6000C05D199990476D1C7F1C02988742F5DB65
:102E7000E0030CD521461A9B199A049800F09EF99C
:102E8000451904E01A9A3020199990476D1C009951
:102E9000481E00900029F5DC08E00D980D99007897
:102EA000491C0D911A9A199990476D1C0199481E59
:102EB00001900029F1DC63E109280100303132334F
:102EC0003435363738396162636465660000000066
:102ED0003031323334353637383941424344454650
:102EE0000000000000F05AF94519761C30780028DF
:102EF00000D0E2E528461BB0F0BD600700D40627ED
:102F00001898C01DC108C90048680A680831C30F75
:102F1000DB071891190001D09CA108E0210501D51B
:102F20009BA104E0E10701D09AA100E09AA143002F
:102F300011985B08109165280CD006DC452809D053
:102F400046281DD0472841D141E0662818D067287F
:102F50003CD13CE00021112F01DB112000E0781C66
:102F60000191009008A911A8FFF7E8FC13990591B9
:102F70000021119A15927F1C12980197009150E040
:102F80000120C00703900120019008A9009711A813
:102F9000FFF7D4FC139A149905920022119B00921A
:102FA00012981593059A0192002901D0104602E06B
:102FB000791C40180190381A01D5019804E040426C
:102FC000401E0090781C0190C01B029043E0012F2E
:102FD00000DA01270021112F01DD112000E0384621
:102FE0000191009008A911A8FFF7A8FC1399059179
:102FF000119A0021129815920091019721070CD483
:103000000599B94201DB019900E00191012904DD34
:10301000159A491E515C302906D0B84201DA011DCB
:1030200005DA0121029115E00199491EEDE700281A
:1030300005DC0099411800910199091A03E0019AF1
:10304000411C914200DD01910099401A401C029000
:103050000120C0070390200706D4029901988142FD
:1030600002DB0020C043029000206946C87707AF0A
:10307000012103980337C907884224D00220119008
:103080002B201290039800280CDA404203902D2048
:10309000129007E00A210398FDF73AF830317F1EBD
:1030A000039039701199481E11900029F2DC0398A1
:1030B0000028EFD1791E129808703078202108403E
:1030C0004530BF1E387006A8C01BC01D0390109865
:1030D0000078002800D00120019941180298C017FB
:1030E0000918039809180498401A401E0490E00338
:1030F00006D421461A9B199A049800F05FF84519E6
:1031000010980078002803D01A9A199990476D1CDE
:10311000E00324D521461A9B199A049800F04EF832
:1031200045191CE00098002807DB009905988842A3
:1031300003DD1598405C199901E0199930201A9A1D
:10314000904700986D1C401C00900298401E029011
:10315000002804D11A9A2E20199990476D1C0199C4
:10316000481E01900029DDDC05E038781A9A7F1CA2
:10317000199990476D1C0399481E03900029F4DCAF
:1031800021461A9B199A0498ACE600002D00000015
:103190002B0000002000000000000000F8B50446ED
:1031A00000251E461746880404D405E03946202031
:1031B000B0476D1C641EF9D52846F8BDFFB504461E
:1031C000002581B01E46C80301D5302700E0202726
:1031D000880404D505E038460399B0476D1C641E89
:1031E000F9D5284605B0F0BD0A68531C0B60107075
:1031F000704710B50A460146002900D110BD02E013
:1032000000230B70491C1346521E002BF8D100BF3F
:10321000F4E7000070B504460D4600BF03210D48D9
:10322000FFF735FA0028F9D00A480068000A0002C2
:10323000E1B208430749086000BF01210548FFF7D4
:1032400026FA0028F9D001210248FFF701FA2046AA
:1032500070BD000000010040FDF790FFFDF792FFF8
:10326000FDF7C6FF012200210420FDF71BFE0F2001
:10327000FDF762FFFEF710FF0446FDF7D5FDFEF7F0
:1032800011F90020FDF73EFAFDF760FFFDF7E4FFBE
:10329000FDF786FD0020FDF735FA4B20C001FEF753
:1032A00044F94B20C001FEF76FF908210020FDF71B
:1032B00021FC6420FDF7C6FDFFF73AFAFDF7A6FBF7
:1032C000FDF7BCFBFEF78DFAFEF768FBFFF730FA5F
:1032D000FDF70CFDFEF762FB142296210120FDF79D
:1032E0004DFA6420FDF7AEFD192246210220FDF7BC
:1032F00045FA9620FDF7A6FD142296210120FDF740
:103300003DFA6420FDF79EFD192246210220FDF7BB
:1033100035FA0EE0FDF798FC044622460548017890
:1033200005A0FFF73BFAFFF703FA7D20C000FDF789
:1033300089FDEFE72000002052657365743A20256F
:10334000642052756E696E673A2025640D0A00008C
:1033500000200149087070473A000020F3B581B0A1
:10336000064600241C4D27E0FEF78FFC00211B4879
:10337000FEF7C2FD4420FEF75CFCFF20FEF744FC94
:103380000446FF2C0CD1002E03D030460299FEF7E4
:1033900041FC01211148FEF7AFFDFEF770FC0DE086
:1033A00001210E48FEF7A8FDFEF769FC6D1E64279B
:1033B00000E07F1E002FFCD1002DD5D100BF002DD5
:1033C00003D100E000E0FDE700BFFF2C02D10120A7
:1033D000034908702046FEBD102700000008004089
:1033E0003A00002010B500210846FFF7B7FF10BDD6
:1033F000FFB581B00C4615461E460A27002C0CD09E
:1034000006E0FFF7EFFF781EC7B2002F00D103E000
:103410000E4800780028F4D000BFFEF736FC0021EB
:103420000B48FEF769FD0198FEF703FC314628467C
:10343000FEF7F0FB01210648FEF75EFDFEF71FFCDC
:1034400000200249087005B0F0BD00003A000020DD
:103450000008004070B505460E460A2406E0FFF756
:10346000C1FF601EC4B2002C00D103E00C480078FC
:103470000028F4D000BFFEF708FC00210948FEF741
:103480003BFD31462846FEF7DAFB01210548FEF7F1
:1034900033FDFEF7F4FB00200149087070BD000009
:1034A0003A00002000080040F8B506460F461446D2
:1034B0001D4639463046FFF7CDFF29462046FFF727
:1034C0004DFFF8BDFFB581B00C4615461E460A27D4
:1034D000002C0CD006E0FFF785FF781EC7B2002F46
:1034E00000D103E00E4800780028F4D000BFFEF7BA
:1034F000CCFB00210B48FEF7FFFC0198FEF799FB7F
:1035000031462846FEF79BFB01210648FEF7F4FCF6
:10351000FEF7B5FB00200249087005B0F0BD0000C1
:103520003A0000200008004010B500221146104665
:1035300000F0EAF81C48807908210840002808D0EB
:10354000012000F083F8022000F0C6F8082000F007
:103550007DF81548807820210840002801D02020DF
:1035600010BD1148807810210840002801D010209B
:10357000F6E70D48807808210840002802D0022094
:1035800000F0AAF80848807802210840002801D0FD
:103590000220E5E704488078C007C00F002801D06A
:1035A0000120DDE70020DBE75806002010B50024ED
:1035B00000F01AF900BF01E0601C84B20120000392
:1035C0008442F9DB10BD7CB505460C46002211464D
:1035D000104600F099F8022000F07EF80820032140
:1035E00000232246009101901946284600F03CF93C
:1035F0007CBDF8B505460E4614460027032000F0B2
:1036000025F8012000F068F800221146104600F06D
:103610007BF8302C05D33146302000F055F93027A7
:1036200006E0611CC8B2314600F04EF9601CC7B21A
:103630000023112202211220009400F0EBF8002256
:103640008021284600F02AF93846F8BD10B5044616
:10365000342004490870084644700220FFF7FAFE3F
:1036600010BD00006C06002070B504462AE02578E5
:10367000641C102D01D9042070BD002605E02078BF
:1036800013498855641C701CC6B2AE42F7DB002398
:103690001A460F492846FFF707FFFF2801D00220EE
:1036A000EAE7FEF7E6FA00280CD1002211461046A0
:1036B00000F02AF80748807908210840002801D046
:1036C0000420D9E720780028D1D100BFD4E700003A
:1036D0006C0600205806002010B504461520084945
:1036E000087008464470034602221046FFF7DCFECD
:1036F000034800780349087001484078487010BDBD
:103700006C0600205806002070B506460C4615468B
:10371000202012490870084646708470C570034620
:1037200008220420FFF7C0FE0C4800780C490870FE
:103730000A48407848700948807888700748C078FF
:10374000C8700648007908710448407948710348F8
:10375000807988710148C079C87170BD6C060020FD
:103760005806002010B50120184908700B460822A1
:10377000FFF79AFE154800781549087013484078FD
:103780000002FF21090208401149486008464068CC
:103790000E49897808430E4948600C48C078087281
:1037A0000A4800790002FF21090208400849C86060
:1037B0000846C0680549497908430549C860034877
:1037C000807908740148C079487410BD6C060020E7
:1037D0005806002070B504460D462B4622460021AF
:1037E0007720FFF705FE70BD10B5FEF736FA7D2491
:1037F000E40001E0601E84B2002CFBD1FEF733FA36
:103800007D24E40001E0601E84B2002CFBD1FFF7B0
:103810009FFD10BD0FB4F8B506460C4611201149A6
:10382000087008464670847008A80078C87009A817
:103830000090042508E000980178001D0090C8B2AF
:1038400008494855681CC5B22046611ECCB2002804
:10385000F1D1009003492846FFF7FCFDF8BC08BCF5
:1038600004B018476C060020F8B505460E4614460D
:103870001F4632200849087008464570867020129D
:10388000C8700C7108464771069888710798C8710E
:103890000820FFF7DFFDF8BD6C06002070B5064676
:1038A0000D46144631200749087008464670857059
:1038B0002012C8700C710020487188710720FFF732
:1038C000C9FD70BD6C06002070B504460D462B4640
:1038D000224600216620FFF7F5FD70BDF8B50746CA
:1038E00000256E1E002418E0FF200D3060432049A3
:1038F000085C002800D12646FF200D3060431C499B
:1039000040184168FF200D306843194A801840680C
:10391000814200D22546601C44B2022CE4DB002E1A
:1039200000DA2E46FF210D317143114A89180846ED
:103930000830FF2202323946FCF700FC0121FF204B
:103940000D3070430A4A1154FF210D316943891823
:103950004868411CFF220D326A43054BD218516062
:10396000FF210D3171431A4689184860F8BD0000E7
:103970003C0000200348007802490978491C014AAC
:10398000117070472400002030B5014600230C78E8
:10399000012204E0885CC01883B2501C82B2601E11
:1039A0009042F7DC0878801E0870885C0502501C85
:1039B000085C2818984201D1012030BD0020FCE7A6
:1039C00000093D0000127A000024F40040865101F5
:1039D00000366E0100800096040000000300000025
:1039E0000702010001C9C3800813000000000000A5
:1039F00000061100020052000511000103600611CB
:103A000001020001330811020400000000000D1142
:103A10001009000414000F12000000000911110524
:103A20000003B4D2D2B40B11120700800108FFFFCB
:103A300008021011120C082A0100303000010600A3
:103A4000003F021011120C140000000000000000E2
:103A5000000000001011120C200000000000000007
:103A600000000000000D1112092C000000000000F1
:103A70000000001011200C000200070F424001C995
:103A8000C380000D051120010CA70C11200818019E
:103A9000000803800010200D11200922004B06D3DE
:103AA000A006D402000B1120072C002386D400D3DB
:103AB000A00511200135E20711200338111010056F
:103AC00011200140280D11200942A403D60301AAA8
:103AD0000180FF051120014C00051120014E400519
:103AE000112001510A1011210C00FFC4307FF5B5DF
:103AF000B8DE0517160C1011210C0C030015FF0081
:103B000000FFC4307FF5B51011210C18B8DE051781
:103B1000160C030015FF0000081122040008140011
:103B20003D0B1123070034040B0407700310113000
:103B30000C000000000000000000000000000C115C
:103B40004008003E0AAAAA444420FE006C3B000044
:103B5000000000203C0000001C290000A83B0000E1
:103B60003C000020440E00002C2900000101000050
:103B7000000000000000000000093D0000000000FF
:103B80000000000000000000000000000000000035
:103B90000000000000000000012400000000000000
:083BA00000010100000000001B
:04000005000000C136
:00000001FF
